:100000000C9453000C947B000C947B000C947B00AC
:100010000C947B000C947B000C947B000C947B0074
:100020000C947B000C947B000C947B000C947B0064
:100030000C947B000C947B000C947B000C947B0054
:100040000C94D5000C94B1000C9423030C9455032C
:100050000C947B000C947B000C947B000C947B0034
:100060000C947B000C947B0001020408102040805B
:1000700001020408102001020408102004040404F2
:100080000404040402020202020203030303030342
:1000900000000000250028002B00000000002400C4
:1000A00027002A00850311241FBECFEFD8E0DEBF52
:1000B000CDBF11E0A0E0B1E0E0ECF8E002C00590B7
:1000C0000D92A633B107D9F721E0A6E3B1E001C054
:1000D0001D92AF3DB207E1F710E0C6EAD0E004C0E0
:1000E0002297FE010E945A04C43AD107C9F70E9420
:1000F000C9030C945E040C94000026E040E855E22D
:1001000060E070E082E491E00E94C10260E08BE078
:100110000E94A50161E08CE00E94A5018CB580647D
:100120008CBD8CB580688CBD109237011092360161
:10013000809100018EBD8CB580688CBD80913601A8
:10014000882371F062E071E082E491E00E9416047D
:100150006091380182E491E00E94230410923601FC
:1001600008951F920F920FB60F9211248F938EB5A0
:100170008093380181E0809336018F910F900FBEFC
:100180000F901F9018956CE071E082E491E00E945E
:1001900016046091380182E491E00E94230468EE25
:1001A00073E080E090E00C9442011F920F920FB632
:1001B0000F9211242F933F938F939F93AF93BF93ED
:1001C00080913A0190913B01A0913C01B0913D0199
:1001D0003091390123E0230F2D3720F40196A11D22
:1001E000B11D05C026E8230F0296A11DB11D209365
:1001F000390180933A0190933B01A0933C01B09365
:100200003D0180913E0190913F01A0914001B0914C
:1002100041010196A11DB11D80933E0190933F01C4
:10022000A0934001B0934101BF91AF919F918F91F5
:100230003F912F910F900FBE0F901F9018953FB7D1
:10024000F89480913E0190913F01A0914001B091BE
:10025000410126B5A89B05C02F3F19F00196A11DAD
:10026000B11D3FBF6627782F892F9A2F620F711D0E
:10027000811D911D42E0660F771F881F991F4A95C7
:10028000D1F70895CF92DF92EF92FF92CF93DF9351
:100290006B017C010E941F01EB01C114D104E10438
:1002A000F10489F00E9435040E941F016C1B7D0B34
:1002B000683E734090F381E0C81AD108E108F10864
:1002C000C851DC4FEACFDF91CF91FF90EF90DF90E4
:1002D000CF900895789484B5826084BD84B58160A0
:1002E00084BD85B5826085BD85B5816085BDEEE63E
:1002F000F0E0808181608083E1E8F0E0108280811D
:1003000082608083808181608083E0E8F0E080818A
:1003100081608083E1EBF0E0808184608083E0EBAA
:10032000F0E0808181608083EAE7F0E08081846092
:1003300080838081826080838081816080838081EE
:10034000806880831092C1000895CF93DF9390E07E
:10035000FC01E859FF4F2491FC01E458FF4F8491C0
:10036000882349F190E0880F991FFC01E656FF4F62
:10037000A591B49180579F4FFC01C591D4919FB72F
:10038000611108C0F8948C91209582238C93888108
:1003900082230AC0623051F4F8948C91322F309548
:1003A00083238C938881822B888304C0F8948C915A
:1003B000822B8C939FBFDF91CF910895FC01818D9B
:1003C000228D90E0805C9F4F821B91098F7399274B
:1003D0000895FC01918D828D981731F0828DE80F80
:1003E000F11D858D90E008958FEF9FEF0895FC013A
:1003F000918D828D981761F0828DDF01A80FB11D5C
:100400005D968C91928D9F5F9F73928F90E008957F
:100410008FEF9FEF08958BE793E0892B49F080E001
:1004200090E0892B29F00E947B0381110C9400003D
:100430000895FC01848DDF01A80FB11DA35ABF4FA1
:100440002C91848D90E001968F739927848FA689D3
:10045000B7892C93A089B1898C9180648C93938DFA
:10046000848D981306C00288F389E02D80818F7DEA
:1004700080830895CF93DF93EC01888D8823C9F0A2
:10048000EA89FB89808185FD05C0A889B9898C919D
:1004900086FD0FC00FB607FCF5CF808185FFF2CF38
:1004A000A889B9898C9185FFEDCFCE010E941902F0
:1004B000E7CFDF91CF910895CF92DF92FF920F9314
:1004C0001F93CF93DF931F92CDB7DEB76C0181E00E
:1004D000D60158968C9358975B969C915B975C9647
:1004E0008C915C97981307C05096ED91FC915197B1
:1004F000808185FD2EC0F601038D10E00F5F1F4F38
:100500000F731127F02EF601848DF81211C00FB66B
:1005100007FCF9CFD6015096ED91FC91519780815F
:1005200085FFF1CFC60169830E9419026981EBCF73
:10053000838DE80FF11DE35AFF4F6083D6015B9670
:100540000C935B975296ED91FC915397808180625A
:100550000CC0D6015696ED91FC915797608350964A
:10056000ED91FC91519780818064808381E090E0DF
:100570000F90DF91CF911F910F91FF90DF90CF905F
:100580000895BF92CF92DF92EF92FF92CF93DF93C5
:10059000EC016A017B01B22EE889F98982E080834F
:1005A000411581EE580761057105A1F060E079E021
:1005B0008DE390E0A70196010E9436042150310995
:1005C000410951095695479537952795211580E1A1
:1005D000380798F0E889F989108260E874E88EE1BC
:1005E00090E0A70196010E9436042150310941098B
:1005F00051095695479537952795EC85FD853083AC
:10060000EE85FF852083188EEC89FD89B082EA890A
:10061000FB89808180618083EA89FB898081886091
:100620008083EA89FB89808180688083EA89FB89ED
:1006300080818F7D8083DF91CF91FF90EF90DF905D
:10064000CF90BF9008951F920F920FB60F92112472
:100650002F938F939F93EF93FF93E0915201F0912B
:1006600053018081E0915801F091590182FD12C03F
:10067000908180915B018F5F8F7320915C01821765
:1006800051F0E0915B01F0E0EE5BFE4F958F8093BF
:100690005B0101C08081FF91EF919F918F912F911C
:1006A0000F900FBE0F901F9018951F920F920FB6CC
:1006B0000F9211242F933F934F935F936F937F93E8
:1006C0008F939F93AF93BF93EF93FF9382E491E057
:1006D0000E941902FF91EF91BF91AF919F918F916D
:1006E0007F916F915F914F913F912F910F900FBE2E
:1006F0000F901F90189582E491E00E94DE0121E0A6
:10070000892B09F420E0822F089510924501109260
:10071000440188EE93E0A0E0B0E08093460190931E
:100720004701A0934801B09349018BE191E0909378
:1007300043018093420185EC90E090934F018093B8
:100740004E0184EC90E0909351018093500180EC35
:1007500090E0909353018093520181EC90E090934C
:1007600055018093540182EC90E09093570180935F
:10077000560186EC90E090935901809358011092B5
:100780005B0110925C0110925D0110925E01089570
:1007900008950E946A010E94C8030E947D00CBE078
:1007A000D2E00E94C3002097E1F30E940B02F9CF30
:1007B000CF92DF92EF92FF920F931F93CF93DF932D
:1007C0006C017A01EB01E60EF71E00E010E0CE1599
:1007D000DF0561F06991D601ED91FC910190F08106
:1007E000E02DC6010995080F191FF1CFC801DF914F
:1007F000CF911F910F91FF90EF90DF90CF900895D0
:100800006115710581F0DB010D900020E9F7AD0164
:1008100041505109461B570BDC01ED91FC910280C0
:10082000F381E02D099480E090E008950C94000499
:10083000DC01ED91FC910190F081E02D099467E2DB
:1008400071E00C9400040F931F93CF93DF93EC019E
:100850000E9418048C01CE010E941F04800F911F7A
:10086000DF91CF911F910F9108950895A1E21A2E63
:10087000AA1BBB1BFD010DC0AA1FBB1FEE1FFF1F44
:10088000A217B307E407F50720F0A21BB30BE40B94
:10089000F50B661F771F881F991F1A9469F76095DB
:1008A0007095809590959B01AC01BD01CF01089595
:1008B000EE0FFF1F0590F491E02D0994F894FFCFFF
:1008C000050053656E64696E672E2E00526563697C
:1008D000657665642E2E00000000005C02D803DE01
:1008E00001F701E9013A020D0A006E616E00696EBE
:0608F00066006F76660051
:00000001FF
