:100000000C9462000C948A000C948A000C948A0070
:100010000C948A000C948A000C948A000C948A0038
:100020000C948A000C948A000C948A000C948A0028
:100030000C948A000C948A000C948A000C948A0018
:100040000C94F7000C948A000C94B4030C94E6030F
:100050000C948A000C948A000C948A000C948A00F8
:100060000C948A000C948A00000000080002010031
:100070000003040700000000000000000102040863
:100080001020408001020408102001020408102002
:10009000040404040404040402020202020203032E
:1000A00003030303000000002300260029000000D2
:1000B0000000250028002B0000000000240027007D
:1000C0002A00160411241FBECFEFD8E0DEBFCDBF3B
:1000D00011E0A0E0B1E0E0EDF9E002C005900D9282
:1000E000AE37B107D9F722E0AEE7B1E001C01D920B
:1000F000AC32B207E1F710E0C4ECD0E004C02297C4
:10010000FE010E94E204C23CD107C9F70E945A04D2
:100110000C94E6040C94000026E040E855E260E010
:1001200070E08FE891E00E94520360E08091060148
:100130000E940D0260E0809104010E940D0260E0C7
:10014000809100010C940D02809106010E944602EC
:100150009093850180938401019719F469E071E01F
:1001600002C067E171E08FE891E00E94AB0468EBA8
:100170007BE080E090E00E946401809104010E9495
:1001800046029093830180938201019719F467E2FC
:1001900071E002C068E371E08FE891E00E94AB0477
:1001A00068EB7BE080E090E00E94640180910201B6
:1001B0000E94C70190937F0180937E01809100018E
:1001C0000E9446029093810180938001019719F467
:1001D0006AE471E002C065E571E08FE891E00E9499
:1001E000AB0468EB7BE080E090E00C9464011F922C
:1001F0000F920FB60F9211242F933F938F939F93DB
:10020000AF93BF938091870190918801A09189015C
:10021000B0918A013091860123E0230F2D3720F41D
:100220000196A11DB11D05C026E8230F0296A11D50
:10023000B11D209386018093870190938801A0933C
:100240008901B0938A0180918B0190918C01A091DA
:100250008D01B0918E010196A11DB11D80938B017E
:1002600090938C01A0938D01B0938E01BF91AF91BB
:100270009F918F913F912F910F900FBE0F901F90E4
:1002800018953FB7F89480918B0190918C01A091C3
:100290008D01B0918E0126B5A89B05C02F3F19F0A6
:1002A0000196A11DB11D3FBF6627782F892F9A2F78
:1002B000620F711D811D911D42E0660F771F881F1F
:1002C000991F4A95D1F70895CF92DF92EF92FF924E
:1002D000CF93DF936B017C010E944101EB01C114BC
:1002E000D104E104F10489F00E94BD040E9441019F
:1002F0006C1B7D0B683E734090F381E0C81AD108F7
:10030000E108F108C851DC4FEACFDF91CF91FF90AF
:10031000EF90DF90CF900895789484B5826084BD8B
:1003200084B5816084BD85B5826085BD85B58160F9
:1003300085BDEEE6F0E0808181608083E1E8F0E059
:100340001082808182608083808181608083E0E888
:10035000F0E0808181608083E1EBF0E08081846067
:100360008083E0EBF0E0808181608083EAE7F0E069
:1003700080818460808380818260808380818160CD
:1003800080838081806880831092C10008958E30C0
:1003900008F08E5087702091080190E4299F900109
:1003A0001124822B80937C0080917A00806480935A
:1003B0007A0080917A0086FDFCCF809178002091B0
:1003C000790090E0922B0895833081F028F48130F9
:1003D00099F08230A1F008958730A9F08830B9F003
:1003E0008430D1F4809180008F7D03C080918000A3
:1003F0008F7780938000089584B58F7702C084B58D
:100400008F7D84BD08958091B0008F7703C0809167
:10041000B0008F7D8093B0000895CF93DF9390E07C
:10042000FC01E458FF4F2491FC01E057FF4F8491F9
:10043000882349F190E0880F991FFC01E854FF4F91
:10044000A591B49182559F4FFC01C591D4919FB75E
:10045000611108C0F8948C91209582238C93888137
:1004600082230AC0623051F4F8948C91322F309577
:1004700083238C938881822B888304C0F8948C9189
:10048000822B8C939FBFDF91CF910895CF93DF9301
:10049000282F30E0F901E859FF4F8491F901E45821
:1004A000FF4FD491F901E057FF4FC491CC2391F055
:1004B00081110E94E401EC2FF0E0EE0FFF1FEC55DC
:1004C000FF4FA591B4912C912D2381E090E021F470
:1004D00080E002C080E090E0DF91CF910895FC01C0
:1004E000818D228D90E0805C9F4F821B91098F73DC
:1004F00099270895FC01918D828D981731F0828D96
:10050000E80FF11D858D90E008958FEF9FEF08951E
:10051000FC01918D828D981761F0828DDF01A80F0B
:10052000B11D5D968C91928D9F5F9F73928F90E02D
:1005300008958FEF9FEF08958CE094E0892B49F0A8
:1005400080E090E0892B29F00E940C0481110C942A
:1005500000000895FC01848DDF01A80FB11DA35A8E
:10056000BF4F2C91848D90E001968F739927848FD3
:10057000A689B7892C93A089B1898C9180648C93CA
:10058000938D848D981306C00288F389E02D8081B5
:100590008F7D80830895CF93DF93EC01888D88232E
:1005A000C9F0EA89FB89808185FD05C0A889B989E0
:1005B0008C9186FD0FC00FB607FCF5CF808185FFBB
:1005C000F2CFA889B9898C9185FFEDCFCE010E9429
:1005D000AA02E7CFDF91CF910895CF92DF92FF92E9
:1005E0000F931F93CF93DF931F92CDB7DEB76C01AC
:1005F00081E0D60158968C9358975B969C915B97B7
:100600005C968C915C97981307C05096ED91FC9185
:100610005197808185FD2EC0F601038D10E00F5F9C
:100620001F4F0F731127F02EF601848DF81211C0A1
:100630000FB607FCF9CFD6015096ED91FC9151977A
:10064000808185FFF1CFC60169830E94AA0269817A
:10065000EBCF838DE80FF11DE35AFF4F6083D60186
:100660005B960C935B975296ED91FC91539780812A
:1006700080620CC0D6015696ED91FC91579760832D
:100680005096ED91FC91519780818064808381E048
:1006900090E00F90DF91CF911F910F91FF90DF902D
:1006A000CF900895BF92CF92DF92EF92FF92CF93B7
:1006B000DF93EC016A017B01B22EE889F98982E0BF
:1006C0008083411581EE580761057105A1F060E056
:1006D00079E08DE390E0A70196010E94BE042150CD
:1006E00031094109510956954795379527952115A7
:1006F00080E1380798F0E889F989108260E874E8A9
:100700008EE190E0A70196010E94BE0421503109BC
:10071000410951095695479537952795EC85FD85F3
:100720003083EE85FF852083188EEC89FD89B082A9
:10073000EA89FB89808180618083EA89FB898081E5
:1007400088608083EA89FB89808180688083EA8968
:10075000FB8980818F7D8083DF91CF91FF90EF9027
:10076000DF90CF90BF9008951F920F920FB60F9217
:1007700011242F938F939F93EF93FF93E0919F0109
:10078000F091A0018081E091A501F091A60182FD88
:1007900012C090818091A8018F5F8F732091A90171
:1007A000821751F0E091A801F0E0E157FE4F958FDC
:1007B0008093A80101C08081FF91EF919F918F915B
:1007C0002F910F900FBE0F901F9018951F920F92B0
:1007D0000FB60F9211242F933F934F935F936F9314
:1007E0007F938F939F93AF93BF93EF93FF938FE884
:1007F00091E00E94AA02FF91EF91BF91AF919F916A
:100800008F917F916F915F914F913F912F910F90B9
:100810000FBE0F901F9018958FE891E00E946F0215
:1008200021E0892B09F420E0822F08951092920193
:100830001092910188EE93E0A0E0B0E080939301E4
:1008400090939401A0939501B093960180E691E076
:100850009093900180938F0185EC90E090939C01A0
:1008600080939B0184EC90E090939E0180939D0186
:1008700080EC90E09093A00180939F0181EC90E048
:100880009093A2018093A10182EC90E09093A40147
:100890008093A30186EC90E09093A6018093A5013C
:1008A0001092A8011092A9011092AA011092AB0116
:1008B000089508950E948C010E9459040E948C00A2
:1008C000CCE9D2E00E94A4002097E1F30E949C02B0
:1008D000F9CFCF92DF92EF92FF920F931F93CF93B6
:1008E000DF936C017A01EB01E60EF71E00E010E0E9
:1008F000CE15DF0561F06991D601ED91FC91019073
:10090000F081E02DC6010995080F191FF1CFC8012C
:10091000DF91CF911F910F91FF90EF90DF90CF90DB
:1009200008956115710581F0DB010D900020E9F754
:10093000AD0141505109461B570BDC01ED91FC9173
:100940000280F381E02D099480E090E008956CE648
:1009500071E00C9491040F931F93CF93DF93EC01FC
:100960000E9491048C01CE010E94A704800F911F68
:10097000DF91CF911F910F9108950895A1E21A2E52
:10098000AA1BBB1BFD010DC0AA1FBB1FEE1FFF1F33
:10099000A217B307E407F50720F0A21BB30BE40B83
:1009A000F50B661F771F881F991F1A9469F76095CA
:1009B0007095809590959B01AC01BD01CF01089584
:1009C000EE0FFF1F0590F491E02D0994F894FFCFEE
:1009D00008000E00020003000143415220444F4F23
:1009E00052204F50454E0043415220444F4F522019
:1009F000434C4F5345440048454144204C494748E7
:100A000054204953204F4E0048454144204C49470B
:100A10004854204953204F464600434152204E4FF0
:100A200054204F4E00434152204F4E000000000022
:100A3000ED0269046F0288027A02CB020D0A006E91
:0E0A4000616E00696E66006F7666002E000023
:00000001FF
