:100000000C9462000C948A000C948A000C948A0070
:100010000C948A000C948A000C948A000C948A0038
:100020000C948A000C948A000C948A000C948A0028
:100030000C948A000C948A000C948A000C948A0018
:100040000C94E0020C948A000C94AE020C9488028A
:100050000C948A000C948A000C948A000C948A00F8
:100060000C948A000C948A000000000023002600F3
:10007000290000000008000201000003040700003E
:1000800000000000000000000000250028002B00F8
:1000900000000000240027002A00040404040404D3
:1000A0000404020202020202030303030303010227
:1000B00004081020408001020408102001020408F6
:1000C0001020FA0311241FBECFEFD8E0DEBFCDBF52
:1000D00011E0A0E0B1E0E8E6F8E002C005900D9282
:1000E000A836B107D9F722E0A8E6B1E001C01D9219
:1000F000A631B207E1F710E0C2E6D0E004C02197D4
:10010000FE010E942704C136D107C9F70E942A03C5
:100110000C9432040C940000CF93DF9390E0FC0128
:10012000E255FF4F2491FC01E656FF4F849188234E
:10013000C1F090E0880F991FFC01E057FF4FC59177
:10014000D491FC01EA57FF4FA591B4919FB7F89461
:100150008881E22FE0958E2388838C91E823EC93AD
:100160009FBFDF91CF910895CF92DF92EF92FF92E0
:100170000F931F93CF93DF936C017A018B01C0E043
:10018000D0E0CE15DF0589F0D8016D918D01D60143
:10019000ED91FC910190F081E02DC6010995892B2C
:1001A00011F47E0102C02196ECCFC701DF91CF91FF
:1001B0001F910F91FF90EF90DF90CF9008950895D9
:1001C00080E090E00895FC01538D448D252F30E0B0
:1001D000842F90E0821B930B541710F0CF96089554
:1001E00001970895FC01918D828D981761F0828DA1
:1001F000DF01A80FB11D5D968C91928D9F5F9F735B
:10020000928F90E008958FEF9FEF0895FC01918DFC
:10021000828D981731F0828DE80FF11D858D90E069
:1002200008958FEF9FEF0895FC01918D228D892F06
:1002300090E0805C9F4F821B91098F7399270895EE
:1002400089E791E00E94140121E0892B09F420E064
:10025000822F0895FC01848DDF01A80FB11DA35AE0
:10026000BF4F2C91848D90E001968F739927848FD6
:10027000A689B7892C93A089B1898C9180648C93CD
:10028000938D848D981306C00288F389E02D8081B8
:100290008F7D80830895EF92FF920F931F93CF93EA
:1002A000DF93EC0181E0888F9B8D8C8D981305C0C6
:1002B000E889F989808185FD24C0F62E0B8D10E038
:1002C0000F5F1F4F0F731127E02E8C8DE8120CC0AB
:1002D0000FB607FCFACFE889F989808185FFF5CF51
:1002E000CE010E942A01F1CF8B8DFE01E80FF11D96
:1002F000E35AFF4FF0820B8FEA89FB89808180628D
:1003000007C0EE89FF896083E889F989808180646C
:10031000808381E090E0DF91CF911F910F91FF905A
:10032000EF900895CF93DF93EC01888D8823C9F077
:10033000EA89FB89808185FD05C0A889B9898C91EE
:1003400086FD0FC00FB607FCF5CF808185FFF2CF89
:10035000A889B9898C9185FFEDCFCE010E942A0131
:10036000E7CFDF91CF91089580E090E0892B29F0CD
:100370000E94200181110C940000089590E0FC017E
:10038000EE58FF4F2491FC01E255FF4F3491FC01E0
:10039000E656FF4FE491EE23B9F1222339F12330E1
:1003A00091F038F42130A9F0223001F584B58F7D29
:1003B00012C0273091F02830A1F02430B9F4809198
:1003C00080008F7D03C0809180008F7780938000B4
:1003D0000DC084B58F7784BD09C08091B0008F7740
:1003E00003C08091B0008F7D8093B000F0E0EE0FED
:1003F000FF1FE859FF4FA591B491EC913E2381E096
:1004000090E021F480E0089580E090E008953FB707
:10041000F89480916D0190916E01A0916F01B0915F
:10042000700126B5A89B05C02F3F19F00196A11DAC
:10043000B11D3FBFBA2FA92F982F8827820F911D7A
:10044000A11DB11DBC01CD0142E0660F771F881FC1
:10045000991F4A95D1F708958F929F92AF92BF92BC
:10046000CF92DF92EF92FF920E9407024B015C0154
:1004700088EBC82E8BE0D82EE12CF12C0E940702CD
:10048000DC01CB0188199909AA09BB09883E934070
:10049000A105B10558F021E0C21AD108E108F10820
:1004A00088EE880E83E0981EA11CB11CC114D104F3
:1004B000E104F10419F7FF90EF90DF90CF90BF9027
:1004C000AF909F908F900895CF93DF93009779F02E
:1004D000FC0101900020E9F73197AF01481B590B4F
:1004E000BC0189E791E00E94B400EC0102C0C0E0C9
:1004F000D0E042E050E062E171E089E791E00E94E3
:10050000B4008C0F9D1FDF91CF9108950E942D04A0
:100510001F920F920FB60F9211242F933F934F9378
:100520005F936F937F938F939F93AF93BF93EF935B
:10053000FF9389E791E00E942A01FF91EF91BF911B
:10054000AF919F918F917F916F915F914F913F916B
:100550002F910F900FBE0F901F9018951F920F9222
:100560000FB60F9211242F938F939F93EF93FF93C6
:10057000E0918901F0918A018081E0918F01F091F1
:10058000900182FD12C09081809192018F5F8F73E4
:1005900020919301821751F0E0919201F0E0E75829
:1005A000FE4F958F8093920101C08081FF91EF9162
:1005B0009F918F912F910F900FBE0F901F901895C4
:1005C0001F920F920FB60F9211242F933F938F9388
:1005D0009F93AF93BF938091690190916A01A0911D
:1005E0006B01B0916C013091680123E0230F2D372E
:1005F00020F40196A11DB11D05C026E8230F029627
:10060000A11DB11D209368018093690190936A0137
:10061000A0936B01B0936C0180916D0190916E017C
:10062000A0916F01B09170010196A11DB11D809341
:100630006D0190936E01A0936F01B0937001BF9113
:10064000AF919F918F913F912F910F900FBE0F907F
:100650001F901895789484B5826084BD84B58160BC
:1006600084BD85B5826085BD85B5816085BD80917D
:100670006E00816080936E001092810080918100F5
:1006800082608093810080918100816080938100ED
:10069000809180008160809380008091B1008460AF
:1006A0008093B1008091B00081608093B000809110
:1006B0007A00846080937A0080917A0082608093CF
:1006C0007A0080917A00816080937A0080917A002C
:1006D000806880937A001092C100E0918901F091C6
:1006E0008A0182E08083E0918501F0918601108289
:1006F000E0918701F09188018FEC80831092910145
:10070000E0918D01F0918E0186E08083E0918B0174
:10071000F0918C01808180618083E0918B01F09168
:100720008C01808188608083E0918B01F0918C0145
:10073000808180688083E0918B01F0918C018081C1
:100740008F7D808383E00E948C0082E00E948C0079
:1007500088E00E948C00C0E483E00E94BE01909378
:10076000780180937701019719F485E191E002C047
:1007700083E291E00E9464020E942C0282E00E94C7
:10078000BE019093760180937501019719F483E37C
:1007900091E002C084E491E00E9464020E942C0275
:1007A000C0937C0080917A00806480937A0080916D
:1007B0007A0086FDFCCF809178002091790090E04E
:1007C000922B909374018093730188E00E94BE0184
:1007D0009093720180937101892B19F486E591E061
:1007E00002C081E691E00E9464020E942C020E94F5
:1007F000B401B2CFE9E7F1E01382128288EE93E010
:10080000A0E0B0E084839583A683B78384E091E081
:100810009183808385EC90E09587848784EC90E0D9
:100820009787868780EC90E0918B808B81EC90E0BD
:10083000938B828B82EC90E0958B848B86EC90E09E
:10084000978B868B118E128E138E148E0895EE0F59
:10085000FF1F0590F491E02D099481E090E0F89459
:080860000C943204F894FFCF60
:10086800000000004B01B400E30092011401F20003
:1008780006010D0A0043415220444F4F52204F5069
:10088800454E0043415220444F4F5220434C4F5352
:1008980045440048454144204C4947485420495361
:1008A800204F4E0048454144204C49474854204970
:1008B80053204F464600434152204E4F54204F4E3E
:0808C80000434152204F4E0095
:107E0000112484B714BE81FFF0D085E080938100F7
:107E100082E08093C00088E18093C10086E0809377
:107E2000C20080E18093C4008EE0C9D0259A86E02C
:107E300020E33CEF91E0309385002093840096BBD3
:107E4000B09BFECF1D9AA8958150A9F7CC24DD24C4
:107E500088248394B5E0AB2EA1E19A2EF3E0BF2EE7
:107E6000A2D0813461F49FD0082FAFD0023811F036
:107E7000013811F484E001C083E08DD089C08234E0
:107E800011F484E103C0853419F485E0A6D080C0E4
:107E9000853579F488D0E82EFF2485D0082F10E0AE
:107EA000102F00270E291F29000F111F8ED06801E7
:107EB0006FC0863521F484E090D080E0DECF843638
:107EC00009F040C070D06FD0082F6DD080E0C81688
:107ED00080E7D80618F4F601B7BEE895C0E0D1E017
:107EE00062D089930C17E1F7F0E0CF16F0E7DF06D8
:107EF00018F0F601B7BEE89568D007B600FCFDCFD4
:107F0000A601A0E0B1E02C9130E011968C91119780
:107F100090E0982F8827822B932B1296FA010C0160
:107F200087BEE89511244E5F5F4FF1E0A038BF0790
:107F300051F7F601A7BEE89507B600FCFDCF97BE46
:107F4000E89526C08437B1F42ED02DD0F82E2BD052
:107F50003CD0F601EF2C8F010F5F1F4F84911BD097
:107F6000EA94F801C1F70894C11CD11CFA94CF0C13
:107F7000D11C0EC0853739F428D08EE10CD085E9AC
:107F80000AD08FE07ACF813511F488E018D01DD067
:107F900080E101D065CF982F8091C00085FFFCCF94
:107FA0009093C60008958091C00087FFFCCF809118
:107FB000C00084FD01C0A8958091C6000895E0E648
:107FC000F0E098E1908380830895EDDF803219F02E
:107FD00088E0F5DFFFCF84E1DECF1F93182FE3DFCA
:107FE0001150E9F7F2DF1F91089580E0E8DFEE27F6
:047FF000FF270994CA
:027FFE00040479
:0400000300007E007B
:00000001FF
