:100000000C945E000C9486000C9486000C94860080
:100010000C9486000C9486000C9486000C94860048
:100020000C9486000C9486000C9486000C94860038
:100030000C9486000C9486000C9486000C94860028
:100040000C945B030C9486000C94C3040C94F5048C
:100050000C9486000C9486000C9486000C94860008
:100060000C942E020C94860000000008000201008F
:100070000003040700000000000000000102040863
:100080001020408001020408102001020408102002
:10009000040404040404040402020202020203032E
:1000A0000303030300000000250028002B000000CC
:1000B0000000240027002A00D501250511241FBEB9
:1000C000CFEFD8E0DEBFCDBF11E0A0E0B1E0E4E1CA
:1000D000FFE002C005900D92A433B107D9F722E0EA
:1000E000A4E3B1E001C01D92AF39B207E1F710E01F
:1000F000CCEBD0E004C02297FE010E948407C83BED
:10010000D107C9F70E9469050C9488070C94000078
:1001100061E0809100010E94540469E070E086E390
:1001200091E00E94CE0162EE70E086E391E00C94D3
:10013000D0018091340190913501C097F1F44AE0EB
:1001400050E060E370E082E092E00E94640661E0CB
:10015000809100010E948D0468EC70E080E090E0E6
:100160000E94C80360E0809100010E948D0468EC49
:1001700070E080E090E00E94C8038091340190918B
:100180003501C397F1F44AE050E063E370E082E0A8
:1001900092E00E94640661E0809100010E948D045B
:1001A00060E971E080E090E00E94C80360E0809127
:1001B00000010E948D0460E971E080E090E00C9401
:1001C000C803089586E391E00E94F30090933501FF
:1001D0008093340108958091690190E020916A0133
:1001E000821B9109089520916A0180916901281765
:1001F00050F4E22FF0E0E559FE4F808190E02F5F50
:1002000020936A0108958FEF9FEF0895E0916A01AE
:1002100080916901E81730F4F0E0E559FE4F8081E4
:1002200090E008958FEF9FEF08950895E0914201C7
:10023000F09143013097E1F030916A01209169011A
:100240003217B0F040E0242F30E02617370754F47F
:10025000DC01A20FB31F5C91D901A559BE4F5C937D
:100260004F5FF1CF10926A0160936901CB0109944D
:100270000895E0914401F0914501309729F01092E2
:1002800048011092470109940895CF92DF92EF92AE
:10029000FF920F931F93CF93DF937C01CB018A01D1
:1002A00020914601222389F0EB016B01C40ED51E7B
:1002B000CC15DD0569F06991D701ED91FC910190B4
:1002C000F081E02DC7010995F3CF642F0E94FB0157
:1002D000C801DF91CF911F910F91FF90EF90DF90B8
:1002E000CF900895CF93DF931F92CDB7DEB7698388
:1002F000209146012223D1F020914701203240F085
:1003000021E030E0FC013383228380E090E015C0DF
:1003100080914801E82FF0E0E75BFE4F99819083E0
:100320008F5F809348018093470105C061E0CE0153
:1003300001960E94FB0181E090E00F90DF91CF9148
:100340000895FC011382128248EE53E060E070E0F1
:10035000448355836683778386E091E0918380832D
:10036000089510926A01109269011092480110924A
:1003700047010C94D901CF93DF93EC01862F0E94A3
:10038000F70189E391E00E94190286E191E00E9461
:100390001402CE01DF91CF910C94B1010C94BB01FA
:1003A0007093430160934201089586E391E00C94B9
:1003B000A1011092F80181E08093F6011092F501FD
:1003C00061E082E10E948D0461E083E10E948D047E
:1003D000E9EBF0E080818E7F808380818D7F808358
:1003E00088E48093B80085E48093BC000895880F6A
:1003F0008093BA000895613298F42091F801243076
:1004000089F46093AD01FC018FEA91E0DC012A2FB1
:10041000281B261718F421912D93F9CF80E0089519
:1004200081E0089582E008959093F2018093F101B4
:1004300008959093F4018093F301089585ED8093DE
:10044000BC008091BC0084FDFCCF1092F80108959F
:1004500085EC8093BC001092F80108951F920F92D2
:100460000FB60F9211242F933F934F935F936F9387
:100470007F938F939F93AF93BF93EF93FF9380915D
:10048000B900887F803609F49CC068F5883209F489
:100490005BC090F4803109F454C038F4882309F427
:1004A000F5C0883009F44DC0F5C0883109F44CC05E
:1004B000803209F45DC0EEC0803409F468C048F4AD
:1004C000803309F455C0883309F0E4C080938B0170
:1004D000A8C0803509F44FC0883509F45DC0883460
:1004E00009F0D8C0D5C0883909F4C6C0A8F4883747
:1004F00009F467C038F4883609F463C0803709F41A
:1005000060C0C8C0883809F4B7C0803909F45FC03A
:10051000803809F0BFC05BC0803B09F485C038F467
:10052000803A09F466C0883A09F47EC0B3C0803CC2
:1005300009F4A6C0883C09F4A3C0883B09F489C02B
:10054000A9C08091F70110C09091D0018091CF0196
:10055000981770F5E091D00181E08E0F8093D00163
:10056000F0E0EF52FE4F80818093BB0085EC85C0A8
:1005700080938B018DC0E091D00181E08E0F80933C
:10058000D0018091BB00F0E0EF52FE4F808390914C
:10059000D0018091CF016DC0E091D00181E08E0F3C
:1005A0008093D0018091BB00F0E0EF52FE4F80833A
:1005B0008091F60181116CC081E08093F50184EA9D
:1005C00060C083E08093F80110928C01CFCF8091BE
:1005D0008C01803208F050C0E0918C0181E08E0FD8
:1005E00080938C018091BB00F0E0E357FE4F808345
:1005F000BDCF80918C01803230F4E0918C01F0E02D
:10060000E357FE4F10820E941E0260918C0170E041
:10061000E091F101F091F2018DE891E009951092DD
:100620008C010E94280236C084E08093F801109269
:10063000AE011092AD01E091F301F091F401099542
:100640008091AD01811105C081E08093AD011092D0
:10065000AF01E091AE0181E08E0F8093AE01F0E03A
:10066000E155FE4F80818093BB009091AE01809157
:10067000AD01981708F47ACF85E88093BC000AC0D2
:1006800085EC8093BC001092F80104C010928B019D
:100690000E941E02FF91EF91BF91AF919F918F91A8
:1006A0007F916F915F914F913F912F910F900FBE6E
:1006B0000F901F9018951F920F920FB60F92112452
:1006C0002F933F938F939F93AF93BF938091FA01A2
:1006D0009091FB01A091FC01B091FD013091F901D5
:1006E00023E0230F2D3720F40196A11DB11D05C075
:1006F00026E8230F0296A11DB11D2093F9018093D6
:10070000FA019093FB01A093FC01B093FD0180914D
:10071000FE019091FF01A0910002B09101020196AB
:10072000A11DB11D8093FE019093FF01A0930002D3
:10073000B0930102BF91AF919F918F913F912F9103
:100740000F900FBE0F901F9018953FB7F8948091AF
:10075000FE019091FF01A0910002B091010226B527
:10076000A89B05C02F3F19F00196A11DB11D3FBFE9
:100770006627782F892F9A2F620F711D811D911D79
:1007800042E0660F771F881F991F4A95D1F7089599
:10079000CF92DF92EF92FF92CF93DF936B017C01B8
:1007A0000E94A503EB01C114D104E104F10489F016
:1007B0000E947C060E94A5036C1B7D0B683E734063
:1007C00090F381E0C81AD108E108F108C851DC4F64
:1007D000EACFDF91CF91FF90EF90DF90CF90089517
:1007E000789484B5826084BD84B5816084BD85B50C
:1007F000826085BD85B5816085BDEEE6F0E08081D3
:1008000081608083E1E8F0E01082808182608083F3
:10081000808181608083E0E8F0E080818160808376
:10082000E1EBF0E0808184608083E0EBF0E08081A8
:1008300081608083EAE7F0E080818460808380814A
:1008400082608083808181608083808180688083F2
:100850001092C1000895833081F028F4813099F01E
:100860008230A1F008958730A9F08830B9F0843043
:10087000D1F4809180008F7D03C0809180008F77BC
:1008800080938000089584B58F7702C084B58F7DF2
:1008900084BD08958091B0008F7703C08091B0002F
:1008A0008F7D8093B0000895CF93DF9390E0FC019B
:1008B000E458FF4F2491FC01E057FF4F84918823B7
:1008C00049F190E0880F991FFC01E255FF4FA59177
:1008D000B4918C559F4FFC01C591D4919FB7611184
:1008E00008C0F8948C91209582238C938881822370
:1008F0000AC0623051F4F8948C91322F30958323E2
:100900008C938881822B888304C0F8948C91822BED
:100910008C939FBFDF91CF9108950F931F93CF9337
:10092000DF931F92CDB7DEB7282F30E0F901E859E9
:10093000FF4F8491F901E458FF4F1491F901E057FA
:10094000FF4F04910023C9F0882321F069830E949E
:100950002B046981E02FF0E0EE0FFF1FEC55FF4FF5
:10096000A591B4919FB7F8948C91611103C0109533
:10097000812301C0812B8C939FBF0F90DF91CF917A
:100980001F910F9108951F920F920FB60F9211248D
:100990002F938F939F93EF93FF93E0911202F09127
:1009A00013028081E0911802F091190282FD12C0B9
:1009B000908180911B028F5F8F7320911C028217A0
:1009C00051F0E0911B02F0E0EE5FFD4F958F8093B8
:1009D0001B0201C08081FF91EF919F918F912F9118
:1009E0000F900FBE0F901F9018951F920F920FB689
:1009F0000F9211242F933F934F935F936F937F93A5
:100A00008F939F93AF93BF93EF93FF9382E092E016
:100A10000E94B806FF91EF91BF91AF919F918F9186
:100A20007F916F915F914F913F912F910F900FBEEA
:100A30000F901F90189582E092E00E947D0621E0C1
:100A4000892B09F420E0822F08951092050210925C
:100A5000040288EE93E0A0E0B0E080930602909359
:100A60000702A0930802B093090287E291E09093F5
:100A700003028093020285EC90E090930F02809332
:100A80000E0284EC90E0909311028093100280ECAF
:100A900090E0909313028093120281EC90E0909387
:100AA00015028093140282EC90E0909317028093D9
:100AB000160286EC90E0909319028093180210922F
:100AC0001B0210921C0210921D0210921E02089529
:100AD00008950E94F0030E9468050E948800CAEAF7
:100AE000D6E00E9499002097E1F30E94AA06F9CF70
:100AF000CF92DF92EF92FF920F931F93CF93DF93EA
:100B00006C017A01EB01E60EF71E00E010E0CE1555
:100B1000DF0561F06991D601ED91FC910190F081C2
:100B2000E02DC6010995080F191FF1CFC801DF910B
:100B3000CF911F910F91FF90EF90DF90CF9008958C
:100B40006115710581F0DB010D900020E9F7AD0121
:100B500041505109461B570BDC01ED91FC9102807D
:100B6000F381E02D099480E090E00895DC01ED919F
:100B7000FC910190F081E02D099462E171E00C9408
:100B8000A0058F929F92AF92BF92CF92DF92EF9289
:100B9000FF920F931F93CF93DF93CDB7DEB7A1974B
:100BA0000FB6F894DEBF0FBECDBF7C01C42EE52F7B
:100BB000CB01D22E19A221E02D1510F02AE0D22E61
:100BC0008E010F5D1F4F8D2C912CA12CB12C6C2D03
:100BD0007E2FA50194010E9460078C2DD29E801962
:100BE0001124015011098A3014F4805D01C0895C20
:100BF000F8018083211531054105510521F0C22EF0
:100C0000E32FCA01E4CFB801C7010E94A005A19655
:100C10000FB6F894DEBF0FBECDBFDF91CF911F910D
:100C20000F91FF90EF90DF90CF90BF90AF909F908B
:100C30008F900895CF92DF92EF92FF920F931F93C0
:100C4000CF93DF93EC016A017B012115310579F423
:100C5000E881F9810190F081E02D642FDF91CF913F
:100C60001F910F91FF90EF90DF90CF9009942A3061
:100C70003105E9F477FF1AC06DE20E94B6058C01D8
:100C800044275527BA014C195D096E097F092AE0EE
:100C9000CE010E94C105800F911FDF91CF911F915E
:100CA0000F91FF90EF90DF90CF9008952AE0B70169
:100CB000A601CE01DF91CF911F910F91FF90EF9090
:100CC000DF90CF900C94C1050F931F93CF93DF93C8
:100CD000EC019A01AB01662757FD6095762F0E94C3
:100CE0001A068C01CE010E94BD05800F911FDF9175
:100CF000CF911F910F9108950895FC01818D228D50
:100D000090E0805C9F4F821B91098F739927089513
:100D1000FC01918D828D981731F0828DE80FF11DC5
:100D2000858D90E008958FEF9FEF0895FC01918DE0
:100D3000828D981761F0828DDF01A80FB11D5D963D
:100D40008C91928D9F5F9F73928F90E008958FEFAB
:100D50009FEF08958BE195E0892B49F080E090E0CA
:100D6000892B29F00E941B0581110C940000089525
:100D7000FC01848DDF01A80FB11DA35ABF4F2C9138
:100D8000848D90E001968F739927848FA689B78907
:100D90002C93A089B1898C9180648C93938D848DE0
:100DA000981306C00288F389E02D80818F7D8083AF
:100DB0000895CF93DF93EC01888D8823C9F0EA89E9
:100DC000FB89808185FD05C0A889B9898C9186FD44
:100DD0000FC00FB607FCF5CF808185FFF2CFA88941
:100DE000B9898C9185FFEDCFCE010E94B806E7CF7F
:100DF000DF91CF910895CF92DF92FF920F931F93CF
:100E0000CF93DF931F92CDB7DEB76C0181E0D6019F
:100E100058968C9358975B969C915B975C968C91B7
:100E20005C97981307C05096ED91FC915197808183
:100E300085FD2EC0F601038D10E00F5F1F4F0F736D
:100E40001127F02EF601848DF81211C00FB607FCA1
:100E5000F9CFD6015096ED91FC915197808185FF95
:100E6000F1CFC60169830E94B8066981EBCF838DFB
:100E7000E80FF11DE35AFF4F6083D6015B960C9398
:100E80005B975296ED91FC915397808180620CC0E4
:100E9000D6015696ED91FC91579760835096ED914F
:100EA000FC91519780818064808381E090E00F9075
:100EB000DF91CF911F910F91FF90DF90CF90089518
:100EC000A1E21A2EAA1BBB1BFD010DC0AA1FBB1F4E
:100ED000EE1FFF1FA217B307E407F50720F0A21BC0
:100EE000B30BE40BF50B661F771F881F991F1A942D
:100EF00069F760957095809590959B01AC01BD0157
:100F0000CF010895EE0FFF1F0590F491E02D099495
:040F1000F894FFCF83
:100F14000D000000000072014501EB00F300060122
:100F240015010D0A006E616E00696E66006F7666CB
:100F3400002E0000000000FB0678057D069606885A
:040F440006D90600C4
:00000001FF
