:100000000C9458000C9480000C9480000C94800098
:100010000C9480000C9480000C9480000C94800060
:100020000C9480000C9480000C9480000C94800050
:100030000C9480000C9480000C9480000C94800040
:100040000C9441030C9480000C9480000C9480006C
:100050000C9480000C9480000C9480000C94800020
:100060000C9414020C9480000000000800020100AF
:100070000003040700000000000000000102040863
:100080001020408001020408102001020408102002
:10009000040404040404040402020202020203032E
:1000A0000303030300000000250028002B00760155
:1000B00011241FBECFEFD8E0DEBFCDBF11E0A0E01E
:1000C000B1E0E2E1F9E002C005900D92A031B10784
:1000D000D9F721E0A0E1B1E001C01D92AB3DB2072C
:1000E000E1F710E0C0EBD0E004C02297FE010E94CF
:1000F0008304CE3AD107C9F70E9471040C94870497
:100100000C94000082E191E00C944A0169E070E0F7
:1001100082E191E00E945E01E0911201F0911301F1
:100120000190F081E02D6091100182E191E009954C
:1001300082E191E00E947301809110019091110180
:100140000196863091052CF4909311018093100153
:1001500004C0109211011092100164EF71E080E070
:1001600090E00C94AE038091420190E02091430115
:10017000821B910908952091430180914201281723
:1001800050F4E22FF0E0EC5BFE4F808190E02F5FB7
:100190002093430108958FEF9FEF0895E09143016D
:1001A00080914201E81730F4F0E0EC5BFE4F808173
:1001B00090E008958FEF9FEF08950895CF92DF921A
:1001C000EF92FF920F931F93CF93DF937C01CB01AC
:1001D0008A0120911E01222389F0EB016B01C40EDC
:1001E000D51ECC15DD0569F06991D701ED91FC9123
:1001F0000190F081E02DC7010995F3CF642F0E9493
:10020000EB01C801DF91CF911F910F91FF90EF900B
:10021000DF90CF900895CF93DF931F92CDB7DEB7D5
:10022000698320911E012223D1F020911F012032E9
:1002300040F021E030E0FC013383228380E090E055
:1002400015C080912001E82FF0E0EF5DFE4F99810D
:1002500090838F5F8093200180931F0105C061E030
:10026000CE0101960E94EB0181E090E00F90DF91BA
:10027000CF910895FC011382128248EE53E060E0B2
:1002800070E0448355836683778384E091E09183B3
:100290008083089510924301109242011092200130
:1002A00010921F010C947A0181E080931E016093EB
:1002B00041011092200110921F0108950C945401E5
:1002C0000F93062F21E040911F0161E271E08091C0
:1002D00041010E9498011092200110921F0110927A
:1002E0001E010F91089561E00C94600182E191E09C
:1002F0000C943A011092D10181E08093CF011092C9
:10030000CE0161E082E10E943A0461E083E10E9453
:100310003A04E9EBF0E080818E7F808380818D7FDD
:10032000808388E48093B80085E48093BC000895BE
:100330000F93413208F046C09091D1019111FCCF4A
:1003400092E09093D1010093CF019FEF90936401CD
:100350001092A9014093A801FB016AEA71E0DB0158
:100360009A2F961B941718F491919D93F9CF1092A0
:10037000D0019091D001880F892B8093D00180917A
:10038000CE01813041F41092CE018091D001809352
:10039000BB0085EC01C085EE8093BC00222321F0D8
:1003A0008091D1018230E1F3809164018F3F61F04F
:1003B00080916401803251F080916401803341F476
:1003C00083E007C081E005C080E003C082E001C097
:1003D00084E00F910895613298F42091D101243086
:1003E00089F460938601FC0188E891E0DC012A2F02
:1003F000281B261718F421912D93F9CF80E008953A
:1004000081E0089582E0089585ED8093BC0080919D
:10041000BC0084FDFCCF1092D101089585EC80933F
:10042000BC001092D10108951F920F920FB60F9247
:1004300011242F933F934F935F936F937F938F93E9
:100440009F93AF93BF93EF93FF938091B900887F01
:10045000803609F49CC068F5883209F45BC090F4DA
:10046000803109F454C038F4882309F4F5C0883089
:1004700009F44DC0F5C0883109F44CC0803209F44C
:100480005DC0EEC0803409F468C048F4803309F4DC
:1004900055C0883309F0E4C080936401A8C080355A
:1004A00009F44FC0883509F45DC0883409F0D8C01C
:1004B000D5C0883909F4C6C0A8F4883709F467C0E4
:1004C00038F4883609F463C0803709F460C0C8C0C6
:1004D000883809F4B7C0803909F45FC0803809F062
:1004E000BFC05BC0803B09F485C038F4803A09F492
:1004F00066C0883A09F47EC0B3C0803C09F4A6C047
:10050000883C09F4A3C0883B09F489C0A9C0809144
:10051000D00110C09091A9018091A801981770F5A1
:10052000E091A90181E08E0F8093A901F0E0E655EA
:10053000FE4F80818093BB0085EC85C08093640171
:100540008DC0E091A90181E08E0F8093A901809177
:10055000BB00F0E0E655FE4F80839091A9018091A9
:10056000A8016DC0E091A90181E08E0F8093A901DF
:100570008091BB00F0E0E655FE4F80838091CF0173
:1005800081116CC081E08093CE0184EA60C083E079
:100590008093D10110926501CFCF809165018032A7
:1005A00008F050C0E091650181E08E0F80936501F5
:1005B0008091BB00F0E0EA59FE4F8083BDCF80916F
:1005C0006501803230F4E0916501F0E0EA59FE4FB8
:1005D00010820E9404026091650170E0E091CA01FE
:1005E000F091CB0186E691E00995109265010E9499
:1005F0000E0236C084E08093D101109287011092E0
:100600008601E091CC01F091CD01099580918601A0
:10061000811105C081E08093860110928801E091EC
:10062000870181E08E0F80938701F0E0E857FE4F4D
:1006300080818093BB0090918701809186019817FB
:1006400008F47ACF85E88093BC000AC085EC8093DB
:10065000BC001092D10104C0109264010E940402F7
:10066000FF91EF91BF91AF919F918F917F916F918A
:100670005F914F913F912F910F900FBE0F901F9060
:1006800018951F920F920FB60F9211242F933F933C
:100690008F939F93AF93BF938091D3019091D40197
:1006A000A091D501B091D6013091D20123E0230F62
:1006B0002D3720F40196A11DB11D05C026E8230F9A
:1006C0000296A11DB11D2093D2018093D301909376
:1006D000D401A093D501B093D6018091D701909118
:1006E000D801A091D901B091DA010196A11DB11DE7
:1006F0008093D7019093D801A093D901B093DA01E8
:10070000BF91AF919F918F913F912F910F900FBE0D
:100710000F901F9018953FB7F8948091D701909152
:10072000D801A091D901B091DA0126B5A89B05C0E6
:100730002F3F19F00196A11DB11D3FBF6627782FED
:10074000892F9A2F620F711D811D911D42E0660F46
:10075000771F881F991F4A95D1F70895CF92DF928E
:10076000EF92FF92CF93DF936B017C010E948B038A
:10077000EB01C114D104E104F10489F00E9480046A
:100780000E948B036C1B7D0B683E734090F381E0ED
:10079000C81AD108E108F108C851DC4FEACFDF914F
:1007A000CF91FF90EF90DF90CF900895789484B52B
:1007B000826084BD84B5816084BD85B5826085BD5D
:1007C00085B5816085BDEEE6F0E080818160808343
:1007D000E1E8F0E010828081826080838081816026
:1007E0008083E0E8F0E0808181608083E1EBF0E0ED
:1007F000808184608083E0EBF0E080818160808391
:10080000EAE7F0E080818460808380818260808379
:100810008081816080838081806880831092C100A4
:100820000895833081F028F4813099F08230A1F06E
:1008300008958730A9F08830B9F08430D1F48091E0
:1008400080008F7D03C0809180008F77809380002F
:10085000089584B58F7702C084B58F7D84BD0895D7
:100860008091B0008F7703C08091B0008F7D80931E
:10087000B00008950F931F93CF93DF931F92CDB7CE
:10088000DEB7282F30E0F901E859FF4F8491F901D4
:10089000E458FF4F1491F901E057FF4F04910023F2
:1008A000C9F0882321F069830E9411046981E02F37
:1008B000F0E0EE0FFF1FEC55FF4FA591B4919FB7ED
:1008C000F8948C91611103C01095812301C0812B94
:1008D0008C939FBF0F90DF91CF911F910F9108953F
:1008E00008950E94D6030E9470040E948200C0E016
:1008F000D0E00E9486002097E1F30E940000F9CF2B
:100900000895EE0FFF1F0590F491E02D0994F894DF
:02091000FFCF17
:10091200000000000B01DE00B300BB00CE00DD00D2
:00000001FF
