:100000000C945C000C9479000C9479000C947900A9
:100010000C9479000C9479000C9479000C9479007C
:100020000C9479000C9479000C9479000C9479006C
:100030000C9479000C9479000C9479000C9479005C
:100040000C94C7000C9479000C9479000C947900FE
:100050000C9479000C9479000C9479000C9479003C
:100060000C9479000C947900000000080002010053
:100070000003040700000000000000000102040863
:100080001020408001020408102001020408102002
:10009000040404040404040402020202020203032E
:1000A0000303030300000000250028002B000000CC
:1000B0000000240027002A0011241FBECFEFD8E043
:1000C000DEBFCDBF11E0A0E0B1E0E0E8F4E002C0A7
:1000D00005900D92A031B107D9F721E0A0E1B1E080
:1000E00001C01D92A931B207E1F70E942F020C94C2
:1000F0003E020C94000061E082E00E94800161E019
:1001000083E00E94800161E084E00C94800161E062
:1001100084E00E94B9018AE090E00E94110160E051
:1001200084E00E94B9018AE090E00C941101EF9202
:10013000FF920F931F93CF93DF9300E011E0C0E095
:10014000D0E080E8E82EF12CF80120810E5F1F4FEF
:10015000209540E063E082E00E94EF0197010C2EC1
:1001600002C0359527950A94E2F740E063E082E00B
:100170000E94EF010E9487002196C830D10521F727
:10018000DF91CF911F910F91FF90EF9008951F92F3
:100190000F920FB60F9211242F933F938F939F933B
:1001A000AF93BF938091110190911201A09113011F
:1001B000B09114013091100123E0230F2D3720F46A
:1001C0000196A11DB11D05C026E8230F0296A11DB1
:1001D000B11D209310018093110190931201A093FF
:1001E0001301B09314018091150190911601A09113
:1001F0001701B09118010196A11DB11D8093150141
:1002000090931601A0931701B0931801BF91AF917D
:100210009F918F913F912F910F900FBE0F901F9044
:1002200018958230910538F0880F991F880F991F13
:1002300005970197F1F70895789484B5826084BD9D
:1002400084B5816084BD85B5826085BD85B58160DA
:1002500085BDEEE6F0E0808181608083E1E8F0E03A
:100260001082808182608083808181608083E0E869
:10027000F0E0808181608083E1EBF0E08081846048
:100280008083E0EBF0E0808181608083EAE7F0E04A
:1002900080818460808380818260808380818160AE
:1002A00080838081806880831092C10008958330AC
:1002B00081F028F4813099F08230A1F008958730E0
:1002C000A9F08830B9F08430D1F4809180008F7D1E
:1002D00003C0809180008F7780938000089584B55B
:1002E0008F7702C084B58F7D84BD08958091B00062
:1002F0008F7703C08091B0008F7D8093B000089508
:10030000CF93DF9390E0FC01E458FF4F2491FC0170
:10031000E057FF4F8491882349F190E0880F991F9F
:10032000FC01E255FF4FA591B4918C559F4FFC0104
:10033000C591D4919FB7611108C0F8948C91209514
:1003400082238C93888182230AC0623051F4F8940E
:100350008C91322F309583238C938881822B8883D4
:1003600004C0F8948C91822B8C939FBFDF91CF9126
:1003700008950F931F93CF93DF931F92CDB7DEB7EE
:10038000282F30E0F901E859FF4F8491F901E45832
:10039000FF4F1491F901E057FF4F04910023C9F07A
:1003A000882321F069830E9457016981E02FF0E0E2
:1003B000EE0FFF1FEC55FF4FA591B4919FB7F89436
:1003C0008C91611103C01095812301C0812B8C9306
:1003D0009FBF0F90DF91CF911F910F910895BF9212
:1003E000CF92DF92EF92FF920F931F93CF93DF9301
:1003F000C82ED62EB42EC7E0D0E0022F10E087E042
:10040000E82EF12CB1100AC0F701EC1BFD0BB8016E
:1004100002C075956795EA95E2F707C0B8010C2E02
:1004200002C0759567950A94E2F7617077278C2D65
:100430000E94B90161E08D2D0E94B90160E08D2D0F
:100440000E94B9012197F0F6DF91CF911F910F9192
:10045000FF90EF90DF90CF90BF90089508950E9495
:100460001C010E942E020E947B00C0E0D0E00E948E
:1004700097002097E1F30E940000F9CFF894FFCF96
:100480000000240024002400000042003C00000082
:00000001FF
