:100000000C9462000C948A000C948A000C948A0070
:100010000C948A000C948A000C948A000C948A0038
:100020000C948A000C948A000C948A000C948A0028
:100030000C948A000C948A000C948A000C948A0018
:100040000C9478020C948A000C944E050C94800554
:100050000C948A000C948A000C948A000C948A00F8
:100060000C948A000C948A00000000080002010031
:100070000003040700000000000000000102040863
:100080001020408001020408102001020408102002
:10009000040404040404040402020202020203032E
:1000A00003030303000000002300260029000000D2
:1000B0000000250028002B0000000000240027007D
:1000C0002A00B00511241FBECFEFD8E0DEBFCDBFA0
:1000D00011E0A0E0B1E0E4E0FDE002C005900D9287
:1000E000AA36B107D9F722E0AAE6B1E001C01D9215
:1000F000A831B207E1F710E0C4ECD0E004C02297C9
:10010000FE010E947C06C23CD107C9F70E94F4059B
:100110000C9480060C940000CF92DF92EF92FF9235
:100120000F931F93CF93DF9361E080910E010E94A4
:10013000710361E080910C010E94710361E0809184
:100140000A010E94710361E0809108010E9471031D
:1001500086E0C82E81E0D82E60E0F60180810E9402
:10016000710394E0E92E91E0F92E60E0F7018081BF
:100170000E94710302E011E060E0F80180810E94BA
:100180007103C0E0D1E060E088810E94710326E045
:1001900040E855E260E070E08BE791E00E94EC04FB
:1001A00061E0F60180810E94AA0361E0F70180818D
:1001B0000E94AA0361E0F80180810E94AA0361E025
:1001C0008881DF91CF911F910F91FF90EF90DF9089
:1001D000CF900C94AA0360E080910E010E94AA03C4
:1001E00061E080910C010E94AA0361E080910A0104
:1001F0000E94AA0361E0809108010E94AA038091F5
:1002000006010E94E0039093710180937001809138
:1002100004010E94E00390936F0180936E0180912E
:1002200002010E94E00390936D0180936C01809124
:1002300000010E94E00390936B0180936A0120917A
:10024000700130917101232B19F460E171E016C047
:1002500020916E0130916F01232B19F462E171E05E
:100260000DC020916C0130916D01232B19F464E1D4
:1002700071E004C0892B61F466E171E08BE791E0E5
:100280000E94450668EC70E080E090E00E94E50284
:1002900061E080910E010E94AA0360E080910C0150
:1002A0000E94AA0361E080910A010E94AA0361E012
:1002B000809108010E94AA03809106010E94E00338
:1002C0009093710180937001809104010E94E0037A
:1002D00090936F0180936E01809102010E94E00370
:1002E00090936D0180936C01809100010E94E00366
:1002F00090936B0180936A0120917001309171019C
:10030000232B59F468E171E08BE791E00E944506E8
:1003100064E670E080E090E01EC020916E013091B4
:100320006F01232B19F46CE171E00DC020916C0179
:1003300030916D01232B19F460E271E004C0892B28
:1003400061F464E271E08BE791E00E94450668EC9D
:1003500070E080E090E00E94E50261E080910E0193
:100360000E94AA0361E080910C010E94AA0360E050
:1003700080910A010E94AA0361E0809108010E9415
:10038000AA03809106010E94E0039093710180937B
:100390007001809104010E94E00390936F018093AB
:1003A0006E01809102010E94E00390936D018093A1
:1003B0006C01809100010E94E00390936B01809397
:1003C0006A012091700130917101232B59F468E288
:1003D00071E08BE791E00E94450664E670E080E002
:1003E00090E01EC020916E0130916F01232B19F413
:1003F0006CE271E00DC020916C0130916D01232BF6
:1004000019F460E371E004C0892B61F464E371E0E6
:100410008BE791E00E94450668EC70E080E090E098
:100420000E94E50261E080910E010E94AA0361E052
:1004300080910C010E94AA0361E080910A010E9450
:10044000AA0360E0809108010E94AA03809106013E
:100450000E94E003909371018093700180910401E8
:100460000E94E00390936F0180936E0180910201DE
:100470000E94E00390936D0180936C0180910001D4
:100480000E94E00390936B0180936A0120917001B8
:1004900030917101232B59F468E371E08BE791E00F
:1004A0000E94450664E670E080E090E01EC0209166
:1004B0006E0130916F01232B19F46CE371E00DC0D4
:1004C00020916C0130916D01232B19F460E471E0EF
:1004D00004C0892B61F464E471E08BE791E00E9431
:1004E000450668EC70E080E090E00C94E502089529
:1004F0001F920F920FB60F9211242F933F938F9359
:100500009F93AF93BF938091730190917401A091D9
:100510007501B09176013091720123E0230F2D37E0
:1005200020F40196A11DB11D05C026E8230F0296F7
:10053000A11DB11D209372018093730190937401EA
:10054000A0937501B0937601809177019091780125
:10055000A0917901B0917A010196A11DB11D8093FE
:10056000770190937801A0937901B0937A01BF91BC
:10057000AF919F918F913F912F910F900FBE0F9050
:100580001F9018953FB7F89480917701909178016A
:10059000A0917901B0917A0126B5A89B05C02F3FA3
:1005A00019F00196A11DB11D3FBF6627782F892F35
:1005B0009A2F620F711D811D911D42E0660F771FFA
:1005C000881F991F4A95D1F70895CF92DF92EF9235
:1005D000FF92CF93DF936B017C010E94C202EB017B
:1005E000C114D104E104F10489F00E9457060E946D
:1005F000C2026C1B7D0B683E734090F381E0C81A09
:10060000D108E108F108C851DC4FEACFDF91CF9162
:10061000FF90EF90DF90CF900895789484B582603A
:1006200084BD84B5816084BD85B5826085BD85B596
:10063000816085BDEEE6F0E0808181608083E1E845
:10064000F0E010828081826080838081816080837D
:10065000E0E8F0E0808181608083E1EBF0E0808180
:1006600084608083E0EBF0E0808181608083EAE752
:10067000F0E08081846080838081826080838081DB
:10068000816080838081806880831092C10008959A
:10069000833081F028F4813099F08230A1F0089500
:1006A0008730A9F08830B9F08430D1F4809180008F
:1006B0008F7D03C0809180008F77809380000895A4
:1006C00084B58F7702C084B58F7D84BD08958091F5
:1006D000B0008F7703C08091B0008F7D8093B00011
:1006E0000895CF93DF9390E0FC01E458FF4F2491ED
:1006F000FC01E057FF4F8491882349F190E0880F77
:10070000991FFC01E854FF4FA591B49182559F4F6A
:10071000FC01C591D4919FB7611108C0F8948C91E8
:10072000209582238C93888182230AC0623051F401
:10073000F8948C91322F309583238C938881822B6F
:10074000888304C0F8948C91822B8C939FBFDF9197
:10075000CF9108950F931F93CF93DF931F92CDB73F
:10076000DEB7282F30E0F901E859FF4F8491F901F5
:10077000E458FF4F1491F901E057FF4F0491002313
:10078000C9F0882321F069830E9448036981E02F22
:10079000F0E0EE0FFF1FE255FF4FA591B4919FB718
:1007A000F8948C91611103C01095812301C0812BB5
:1007B0008C939FBF0F90DF91CF911F910F91089560
:1007C000CF93DF93282F30E0F901E859FF4F849150
:1007D000F901E458FF4FD491F901E057FF4FC4915C
:1007E000CC2391F081110E944803EC2FF0E0EE0F32
:1007F000FF1FEC55FF4FA591B4912C912D2381E063
:1008000090E021F480E002C080E090E0DF91CF91A1
:100810000895FC01818D228D90E0805C9F4F821BAA
:1008200091098F7399270895FC01918D828D9817F6
:1008300031F0828DE80FF11D858D90E008958FEFE6
:100840009FEF0895FC01918D828D981761F0828D44
:10085000DF01A80FB11D5D968C91928D9F5F9F73F4
:10086000928F90E008958FEF9FEF089586EA95E0CC
:10087000892B49F080E090E0892B29F00E94A605A1
:1008800081110C9400000895FC01848DDF01A80FF4
:10089000B11DA35ABF4F2C91848D90E001968F73A8
:1008A0009927848FA689B7892C93A089B1898C91C7
:1008B00080648C93938D848D981306C00288F3898D
:1008C000E02D80818F7D80830895CF93DF93EC01AD
:1008D000888D8823C9F0EA89FB89808185FD05C060
:1008E000A889B9898C9186FD0FC00FB607FCF5CF9A
:1008F000808185FFF2CFA889B9898C9185FFEDCFE2
:10090000CE010E944404E7CFDF91CF910895CF92AA
:10091000DF92FF920F931F93CF93DF931F92CDB778
:10092000DEB76C0181E0D60158968C9358975B96A0
:100930009C915B975C968C915C97981307C050963E
:10094000ED91FC915197808185FD2EC0F601038DBC
:1009500010E00F5F1F4F0F731127F02EF601848DEB
:10096000F81211C00FB607FCF9CFD6015096ED91E1
:10097000FC915197808185FFF1CFC60169830E9468
:1009800044046981EBCF838DE80FF11DE35AFF4FDB
:100990006083D6015B960C935B975296ED91FC9128
:1009A0005397808180620CC0D6015696ED91FC91E0
:1009B000579760835096ED91FC91519780818064A8
:1009C000808381E090E00F90DF91CF911F910F9194
:1009D000FF90DF90CF900895BF92CF92DF92EF9279
:1009E000FF92CF93DF93EC016A017B01B22EE8897D
:1009F000F98982E08083411581EE58076105710510
:100A0000A1F060E079E08DE390E0A70196010E94FB
:100A10005806215031094109510956954795379596
:100A20002795211580E1380798F0E889F989108227
:100A300060E874E88EE190E0A70196010E945806F4
:100A40002150310941095109569547953795279508
:100A5000EC85FD853083EE85FF852083188EEC893B
:100A6000FD89B082EA89FB89808180618083EA897F
:100A7000FB89808188608083EA89FB898081806826
:100A80008083EA89FB8980818F7D8083DF91CF918C
:100A9000FF90EF90DF90CF90BF9008951F920F923C
:100AA0000FB60F9211242F938F939F93EF93FF9381
:100AB000E0918B01F0918C018081E0919101F091A6
:100AC000920182FD12C09081809194018F5F8F739B
:100AD00020919501821751F0E0919401F0E0E558E2
:100AE000FE4F958F8093940101C08081FF91EF911B
:100AF0009F918F912F910F900FBE0F901F9018957F
:100B00001F920F920FB60F9211242F933F934F9382
:100B10005F936F937F938F939F93AF93BF93EF9365
:100B2000FF938BE791E00E944404FF91EF91BF9106
:100B3000AF919F918F917F916F915F914F913F9175
:100B40002F910F900FBE0F901F9018958BE791E09B
:100B50000E94090421E0892B09F420E0822F0895E6
:100B600010927E0110927D0188EE93E0A0E0B0E04B
:100B700080937F0190938001A0938101B0938201C3
:100B80008CE491E090937C0180937B0185EC90E074
:100B9000909388018093870184EC90E090938A0180
:100BA0008093890180EC90E090938C0180938B017D
:100BB00081EC90E090938E0180938D0182EC90E027
:100BC0009093900180938F0186EC90E09093920136
:100BD00080939101109294011092950110929601C8
:100BE00010929701089508950E940D030E94F30545
:100BF0000E948C00C6E3D4E00E94EB002097E1F352
:100C00000E943604F9CFCF92DF92EF92FF920F93BA
:100C10001F93CF93DF936C017A01EB01E60EF71E71
:100C200000E010E0CE15DF0561F06991D601ED918D
:100C3000FC910190F081E02DC6010995080F191F64
:100C4000F1CFC801DF91CF911F910F91FF90EF90ED
:100C5000DF90CF9008956115710581F0DB010D9053
:100C60000020E9F7AD0141505109461B570BDC014B
:100C7000ED91FC910280F381E02D099480E090E0F9
:100C8000089568E571E00C942B060F931F93CF93A2
:100C9000DF93EC010E942B068C01CE010E944106DD
:100CA000800F911FDF91CF911F910F9108950895AB
:100CB000A1E21A2EAA1BBB1BFD010DC0AA1FBB1F60
:100CC000EE1FFF1FA217B307E407F50720F0A21BD2
:100CD000B30BE40BF50B661F771F881F991F1A943F
:100CE00069F760957095809590959B01AC01BD0169
:100CF000CF010895EE0FFF1F0590F491E02D0994A8
:040D0000F894FFCF95
:100D04000D000C000B000A00090008000700060093
:100D14003000310032003300203420002035200020
:100D240020362000203720002038200020392000E1
:100D340020412000204220002043200020442000A5
:100D44002045200020462000000000008704030600
:100D540009042204140465040D0A006E616E00691E
:0A0D64006E66006F7666002E000038
:00000001FF
