:100000000C945D000C9485000C9485000C94850084
:100010000C9485000C9485000C9485000C9485004C
:100020000C9485000C9485000C9485000C9485003C
:100030000C9485000C9485000C9485000C9485002C
:100040000C94F4000C9485000C94E0030C941204BE
:100050000C9485000C9485000C9485000C9485000C
:100060000C9485000C94850000000008000201003B
:100070000003040700000000000000000102040863
:100080001020408001020408102001020408102002
:10009000040404040404040402020202020203032E
:1000A0000303030300000000250028002B000000CC
:1000B0000000240027002A00420411241FBECFEFB5
:1000C000D8E0DEBFCDBF11E0A0E0B1E0EEEFFAE096
:1000D00002C005900D92A832B107D9F721E0A8E23D
:1000E000B1E001C01D92AF3CB207E1F710E0CAEBEE
:1000F000D0E004C02297FE010E947905C83BD107D9
:10010000C9F70E9486040C947D050C94000026E03B
:1001100040E855E260E070E082E391E00E947E03F7
:1001200061E0809104010E94ED0161E08091020193
:100130000E94ED0161E0809100010C94ED01CF93EC
:10014000DF93C4E0D1E060E088810E942602209124
:10015000280141E060910201809100010E945C024F
:1001600061E08881DF91CF910C942602CF92DF92DB
:10017000EF92FF92CF93DF93109228010E949F008D
:1001800064EF71E080E090E00E946101C0E0D0E0A7
:10019000C12CD12C7601C394D701C6010C2E04C00A
:1001A000880F991FAA1FBB1F0A94D2F760912801DC
:1001B000682B609328014AE050E082E391E00E94BE
:1001C0003D050E949F0064EF71E080E090E00E9496
:1001D00061012196C830D105F9F6DF91CF91FF90EA
:1001E000EF90DF90CF9008951F920F920FB60F926D
:1001F00011242F933F938F939F93AF93BF9380913D
:100200002A0190912B01A0912C01B0912D013091E8
:10021000290123E0230F2D3720F40196A11DB11DE4
:1002200005C026E8230F0296A11DB11D20932901C8
:1002300080932A0190932B01A0932C01B0932D0160
:1002400080912E0190912F01A0913001B091310148
:100250000196A11DB11D80932E0190932F01A093B3
:100260003001B0933101BF91AF919F918F913F9138
:100270002F910F900FBE0F901F9018953FB7F894D5
:1002800080912E0190912F01A0913001B091310108
:1002900026B5A89B05C02F3F19F00196A11DB11DE1
:1002A0003FBF6627782F892F9A2F620F711D811DFE
:1002B000911D42E0660F771F881F991F4A95D1F75D
:1002C0000895CF92DF92EF92FF92CF93DF936B016D
:1002D0007C010E943E01EB01C114D104E104F10450
:1002E00089F00E9454050E943E016C1B7D0B683E04
:1002F000734090F381E0C81AD108E108F108C851B1
:10030000DC4FEACFDF91CF91FF90EF90DF90CF905D
:100310000895789484B5826084BD84B5816084BD7D
:1003200085B5826085BD85B5816085BDEEE6F0E06E
:10033000808181608083E1E8F0E0108280818260CA
:100340008083808181608083E0E8F0E0808181604B
:100350008083E1EBF0E0808184608083E0EBF0E07B
:10036000808181608083EAE7F0E08081846080831F
:1003700080818260808380818160808380818068C9
:1003800080831092C1000895833081F028F4813079
:1003900099F08230A1F008958730A9F08830B9F043
:1003A0008430D1F4809180008F7D03C080918000E3
:1003B0008F7780938000089584B58F7702C084B5CD
:1003C0008F7D84BD08958091B0008F7703C08091A8
:1003D000B0008F7D8093B0000895CF93DF9390E0BD
:1003E000FC01E458FF4F2491FC01E057FF4F84913A
:1003F000882349F190E0880F991FFC01E255FF4FD7
:10040000A591B4918C559F4FFC01C591D4919FB794
:10041000611108C0F8948C91209582238C93888177
:1004200082230AC0623051F4F8948C91322F3095B7
:1004300083238C938881822B888304C0F8948C91C9
:10044000822B8C939FBFDF91CF9108950F931F93C1
:10045000CF93DF931F92CDB7DEB7282F30E0F9019D
:10046000E859FF4F8491F901E458FF4F1491F901C5
:10047000E057FF4F04910023C9F0882321F06983DE
:100480000E94C4016981E02FF0E0EE0FFF1FEC55E0
:10049000FF4FA591B4919FB7F8948C91611103C05F
:1004A0001095812301C0812B8C939FBF0F90DF910A
:1004B000CF911F910F910895BF92CF92DF92EF924B
:1004C000FF920F931F93CF93DF93C82ED62EB42E97
:1004D000C7E0D0E0022F10E087E0E82EF12CB11049
:1004E0000AC0F701EC1BFD0BB80102C075956795BA
:1004F000EA95E2F707C0B8010C2E02C07595679522
:100500000A94E2F7617077278C2D0E94260261E041
:100510008D2D0E94260260E08D2D0E9426022197DB
:10052000F0F6DF91CF911F910F91FF90EF90DF9048
:10053000CF90BF900895FC01818D228D90E0805C6A
:100540009F4F821B91098F7399270895FC01918D0C
:10055000828D981731F0828DE80FF11D858D90E026
:1005600008958FEF9FEF0895FC01918D828D98176C
:1005700061F0828DDF01A80FB11D5D968C91928D87
:100580009F5F9F73928F90E008958FEF9FEF089584
:1005900088E394E0892B49F080E090E0892B29F0F2
:1005A0000E94380481110C9400000895FC01848D90
:1005B000DF01A80FB11DA35ABF4F2C91848D90E08D
:1005C00001968F739927848FA689B7892C93A08968
:1005D000B1898C9180648C93938D848D981306C01F
:1005E0000288F389E02D80818F7D80830895CF93E9
:1005F000DF93EC01888D8823C9F0EA89FB8980812B
:1006000085FD05C0A889B9898C9186FD0FC00FB6FC
:1006100007FCF5CF808185FFF2CFA889B9898C913D
:1006200085FFEDCFCE010E94D602E7CFDF91CF91BB
:100630000895CF92DF92FF920F931F93CF93DF9392
:100640001F92CDB7DEB76C0181E0D60158968C932E
:1006500058975B969C915B975C968C915C979813EE
:1006600007C05096ED91FC915197808185FD2EC079
:10067000F601038D10E00F5F1F4F0F731127F02E4F
:10068000F601848DF81211C00FB607FCF9CFD60120
:100690005096ED91FC915197808185FFF1CFC60175
:1006A00069830E94D6026981EBCF838DE80FF11D2B
:1006B000E35AFF4F6083D6015B960C935B9752968B
:1006C000ED91FC915397808180620CC0D6015696C3
:1006D000ED91FC91579760835096ED91FC91519765
:1006E00080818064808381E090E00F90DF91CF91E2
:1006F0001F910F91FF90DF90CF900895BF92CF92FE
:10070000DF92EF92FF92CF93DF93EC016A017B01BE
:10071000B22EE889F98982E08083411581EE58077D
:1007200061057105A1F060E079E08DE390E0A7013B
:1007300096010E94550521503109410951095695EC
:10074000479537952795211580E1380798F0E88976
:10075000F989108260E874E88EE190E0A7019601C3
:100760000E94550521503109410951095695479577
:1007700037952795EC85FD853083EE85FF852083B1
:10078000188EEC89FD89B082EA89FB8980818061BD
:100790008083EA89FB89808188608083EA89FB897C
:1007A000808180688083EA89FB8980818F7D808356
:1007B000DF91CF91FF90EF90DF90CF90BF900895A1
:1007C0001F920F920FB60F9211242F938F939F9326
:1007D000EF93FF93E0914201F09143018081E0911A
:1007E0004801F091490182FD12C0908180914B0136
:1007F0008F5F8F7320914C01821751F0E0914B0174
:10080000F0E0EE5CFE4F958F80934B0101C080813C
:10081000FF91EF919F918F912F910F900FBE0F90AD
:100820001F9018951F920F920FB60F9211242F93BD
:100830003F934F935F936F937F938F939F93AF9368
:10084000BF93EF93FF9382E391E00E94D602FF9162
:10085000EF91BF91AF919F918F917F916F915F9138
:100860004F913F912F910F900FBE0F901F901895B1
:1008700082E391E00E949B0221E0892B09F420E0B1
:10088000822F0895109235011092340188EE93E082
:10089000A0E0B0E08093360190933701A093380137
:1008A000B09339018AE091E0909333018093320153
:1008B00085EC90E090933F0180933E0184EC90E0C2
:1008C000909341018093400180EC90E0909343012C
:1008D0008093420181EC90E0909345018093440124
:1008E00082EC90E0909347018093460186EC90E083
:1008F000909349018093480110924B0110924C0152
:1009000010924D0110924E01089508950E948901A0
:100910000E9485040E948700C8ECD2E00E94B600C5
:100920002097E1F30E94C802F9CFCF92DF92EF92B5
:10093000FF920F931F93CF93DF936C017A01EB012A
:10094000E60EF71E00E010E0CE15DF0561F06991BC
:10095000D601ED91FC910190F081E02DC601099541
:10096000080F191FF1CFC801DF91CF911F910F918F
:10097000FF90EF90DF90CF9008956115710581F0A1
:10098000DB010D900020E9F7AD0141505109461BF4
:10099000570BDC01ED91FC910280F381E02D09946D
:1009A00080E090E0089566E171E00C94BD048F92C0
:1009B0009F92AF92BF92CF92DF92EF92FF920F93EE
:1009C0001F93CF93DF93CDB7DEB7A1970FB6F894FF
:1009D000DEBF0FBECDBF7C01C42EE52FCB01D22ED2
:1009E00019A221E02D1510F02AE0D22E8E010F5D04
:1009F0001F4F8D2C912CA12CB12C6C2D7E2FA5017D
:100A000094010E9455058C2DD29E8019112401500D
:100A100011098A3014F4805D01C0895CF80180837B
:100A2000211531054105510521F0C22EE32FCA01E0
:100A3000E4CFB801C7010E94BD04A1960FB6F89497
:100A4000DEBF0FBECDBFDF91CF911F910F91FF9001
:100A5000EF90DF90CF90BF90AF909F908F900895D0
:100A60002115310541F4DC01ED91FC910190F081FB
:100A7000E02D642F09940C94D7040F931F93CF9308
:100A8000DF93EC019A01462F50E060E070E00E9495
:100A900030058C01CE010E94D304800F911FDF919D
:100AA000CF911F910F9108950895A1E21A2EAA1BCC
:100AB000BB1BFD010DC0AA1FBB1FEE1FFF1FA2170E
:100AC000B307E407F50720F0A21BB30BE40BF50B0B
:100AD000661F771F881F991F1A9469F76095709594
:100AE000809590959B01AC01BD01CF010895EE0F5B
:0E0AF000FF1F0590F491E02D0994F894FFCFBC
:100AFE0004000600050000000000190395049B0287
:100B0E00B402A602F7020D0A006E616E00696E66EF
:080B1E00006F7666002E000056
:00000001FF
