:100000000C945D000C94F8000C9425010C94850070
:100010000C9485000C9485000C9485000C9485004C
:100020000C9485000C9485000C9485000C9485003C
:100030000C9485000C9485000C9485000C9485002C
:100040000C9452010C9485000C94FF030C94310421
:100050000C9485000C9485000C9485000C9485000C
:100060000C9485000C94850000000008000201003B
:100070000003040700000000000000000102040863
:100080001020408001020408102001020408102002
:10009000040404040404040402020202020203032E
:1000A0000303030300000000250028002B000000CC
:1000B0000000240027002A00610411241FBECFEF96
:1000C000D8E0DEBFCDBF11E0A0E0B1E0E6E6FAE0A7
:1000D00002C005900D92A834B107D9F721E0A8E439
:1000E000B1E001C01D92A43FB207E1F710E0CAEBF6
:1000F000D0E004C02297FE010E942D05C83BD10725
:10010000C9F70E94A5040C9431050C94000064E02A
:1001100071E087E591E00E94F6048091480190919A
:100120004901892B51F460E0809102010E94840210
:100130001092490110924801089561E080910201F6
:100140000E94840281E090E09093490180934801ED
:100150000895CF93DF93C2E0D1E061E088810E94EF
:100160004B0260E088810E94840262E0809100017D
:100170000E944B0241E050E067E870E080E00E949E
:10018000D80026E040E855E260E070E087E591E0C5
:10019000DF91CF910C949D0360ED77E080E090E0DB
:1001A0000E94BF0163E171E087E591E00C94F604E1
:1001B0008230E8F4E82FF0E0EE0FFF1FE65BFE4F21
:1001C00071836083813041F0809169008C7F842B42
:1001D00080936900E89A089580916900440F551F43
:1001E000440F551F837F842B80936900E99A0895FB
:1001F0001F920F920FB60F9211242F933F934F939C
:100200005F936F937F938F939F93AF93BF93EF937E
:10021000FF9380914A0190914B01892B29F0E09145
:100220004A01F0914B010995FF91EF91BF91AF9178
:100230009F918F917F916F915F914F913F912F91FE
:100240000F900FBE0F901F9018951F920F920FB630
:100250000F9211242F933F934F935F936F937F934C
:100260008F939F93AF93BF93EF93FF9380914C0134
:1002700090914D01892B29F0E0914C01F0914D01B5
:100280000995FF91EF91BF91AF919F918F917F91D0
:100290006F915F914F913F912F910F900FBE0F90F3
:1002A0001F9018951F920F920FB60F9211242F9343
:1002B0003F938F939F93AF93BF9380914F01909102
:1002C0005001A0915101B091520130914E0123E0B3
:1002D000230F2D3720F40196A11DB11D05C026E87E
:1002E000230F0296A11DB11D20934E0180934F0153
:1002F00090935001A0935101B0935201809153010A
:1003000090915401A0915501B09156010196A11D03
:10031000B11D8093530190935401A0935501B09364
:100320005601BF91AF919F918F913F912F910F9067
:100330000FBE0F901F9018953FB7F894809153010E
:1003400090915401A0915501B091560126B5A89BFA
:1003500005C02F3F19F00196A11DB11D3FBF6627B3
:10036000782F892F9A2F620F711D811D911D42E0F8
:10037000660F771F881F991F4A95D1F70895CF926E
:10038000DF92EF92FF92CF93DF936B017C010E948B
:100390009C01EB01C114D104E104F10489F00E9435
:1003A00008050E949C016C1B7D0B683E734090F316
:1003B00081E0C81AD108E108F108C851DC4FEACF42
:1003C000DF91CF91FF90EF90DF90CF9008957894D8
:1003D00084B5826084BD84B5816084BD85B582604A
:1003E00085BD85B5816085BDEEE6F0E080818160E8
:1003F0008083E1E8F0E010828081826080838081E8
:1004000081608083E0E8F0E0808181608083E1EBBF
:10041000F0E0808184608083E0EBF0E080818160A7
:100420008083EAE7F0E0808184608083808182605D
:100430008083808181608083808180688083109246
:10044000C1000895833081F028F4813099F0823022
:10045000A1F008958730A9F08830B9F08430D1F444
:10046000809180008F7D03C0809180008F77809382
:100470008000089584B58F7702C084B58F7D84BDD8
:1004800008958091B0008F7703C08091B0008F7D78
:100490008093B0000895CF93DF9390E0FC01E4587F
:1004A000FF4F2491FC01E057FF4F8491882349F1CD
:1004B00090E0880F991FFC01E255FF4FA591B49180
:1004C0008C559F4FFC01C591D4919FB7611108C015
:1004D000F8948C91209582238C93888182230AC082
:1004E000623051F4F8948C91322F309583238C93A1
:1004F0008881822B888304C0F8948C91822B8C9302
:100500009FBFDF91CF9108950F931F93CF93DF93F8
:100510001F92CDB7DEB7282F30E0F901E859FF4F21
:100520008491F901E458FF4F1491F901E057FF4F0E
:1005300004910023C9F0882321F069830E942202DC
:100540006981E02FF0E0EE0FFF1FEC55FF4FA59102
:10055000B4919FB7F8948C91611103C010958123D9
:1005600001C0812B8C939FBF0F90DF91CF911F9182
:100570000F910895FC01818D228D90E0805C9F4F4A
:10058000821B91098F7399270895FC01918D828DAB
:10059000981731F0828DE80FF11D858D90E0089558
:1005A0008FEF9FEF0895FC01918D828D981761F078
:1005B000828DDF01A80FB11D5D968C91928D9F5F9A
:1005C0009F73928F90E008958FEF9FEF089587E5D6
:1005D00094E0892B49F080E090E0892B29F00E947B
:1005E000570481110C9400000895FC01848DDF01F3
:1005F000A80FB11DA35ABF4F2C91848D90E0019696
:100600008F739927848FA689B7892C93A089B18984
:100610008C9180648C93938D848D981306C002888E
:10062000F389E02D80818F7D80830895CF93DF93C0
:10063000EC01888D8823C9F0EA89FB89808185FDDA
:1006400005C0A889B9898C9186FD0FC00FB607FC3B
:10065000F5CF808185FFF2CFA889B9898C9185FF7C
:10066000EDCFCE010E94F502E7CFDF91CF91089543
:10067000CF92DF92FF920F931F93CF93DF931F923E
:10068000CDB7DEB76C0181E0D60158968C935897B0
:100690005B969C915B975C968C915C97981307C0D6
:1006A0005096ED91FC915197808185FD2EC0F60109
:1006B000038D10E00F5F1F4F0F731127F02EF6010F
:1006C000848DF81211C00FB607FCF9CFD6015096F1
:1006D000ED91FC915197808185FFF1CFC60169832F
:1006E0000E94F5026981EBCF838DE80FF11DE35A7B
:1006F000FF4F6083D6015B960C935B975296ED910A
:10070000FC915397808180620CC0D6015696ED9182
:10071000FC91579760835096ED91FC9151978081A1
:100720008064808381E090E00F90DF91CF911F91F2
:100730000F91FF90DF90CF900895BF92CF92DF92FC
:10074000EF92FF92CF93DF93EC016A017B01B22E0F
:10075000E889F98982E08083411581EE58076105B7
:100760007105A1F060E079E08DE390E0A7019601CA
:100770000E940905215031094109510956954795B3
:1007800037952795211580E1380798F0E889F98990
:10079000108260E874E88EE190E0A70196010E9463
:1007A0000905215031094109510956954795379559
:1007B0002795EC85FD853083EE85FF852083188E97
:1007C000EC89FD89B082EA89FB8980818061808320
:1007D000EA89FB89808188608083EA89FB8980813E
:1007E00080688083EA89FB8980818F7D8083DF91A7
:1007F000CF91FF90EF90DF90CF90BF9008951F9220
:100800000F920FB60F9211242F938F939F93EF9314
:10081000FF93E0916701F09168018081E0916D01A3
:10082000F0916E0182FD12C09081809170018F5F06
:100830008F7320917101821751F0E0917001F0E007
:10084000E95AFE4F958F8093700101C08081FF911E
:10085000EF919F918F912F910F900FBE0F901F904E
:1008600018951F920F920FB60F9211242F933F935A
:100870004F935F936F937F938F939F93AF93BF93A8
:10088000EF93FF9387E591E00E94F502FF91EF91CE
:10089000BF91AF919F918F917F916F915F914F9198
:1008A0003F912F910F900FBE0F901F90189587E5E5
:1008B00091E00E94BA0221E0892B09F420E0822F06
:1008C000089510925A011092590188EE93E0A0E029
:1008D000B0E080935B0190935C01A0935D01B093C5
:1008E0005E018DE291E0909358018093570185EC71
:1008F00090E0909364018093630184EC90E0909386
:1009000066018093650180EC90E09093680180938C
:10091000670181EC90E090936A018093690182EC19
:1009200090E090936C0180936B0186EC90E0909343
:100930006E0180936D0110927001109271011092FE
:10094000720110927301089508950E94E7010E94B8
:10095000A4040E94A900C7EED2E00E94CC00209718
:10096000E1F30E94E702F9CFCF92DF92EF92FF927C
:100970000F931F93CF93DF936C017A01EB01E60E87
:10098000F71E00E010E0CE15DF0561F06991D60199
:10099000ED91FC910190F081E02DC6010995080FC1
:1009A000191FF1CFC801DF91CF911F910F91FF90D7
:1009B000EF90DF90CF9008956115710581F0DB0114
:1009C0000D900020E9F7AD0141505109461B570B2E
:1009D000DC01ED91FC910280F381E02D099480E02F
:1009E00090E0089569E371E00C94DC040F931F9389
:1009F000CF93DF93EC010E94DC048C01CE010E94B6
:100A0000F204800F911FDF91CF911F910F910895F4
:100A10000895A1E21A2EAA1BBB1BFD010DC0AA1F3F
:100A2000BB1FEE1FFF1FA217B307E407F50720F057
:100A3000A21BB30BE40BF50B661F771F881F991FD2
:100A40001A9469F760957095809590959B01AC011B
:100A5000BD01CF010895EE0FFF1F0590F491E02D29
:060A60000994F894FFCF99
:100A660002000D00427574746F6E205072657373C8
:100A7600656400446F696E67205468696E67732EFB
:100A86002E2E2E2E2E2E2E2E00000000003803B401
:100A960004BA02D302C50216030D0A006E616E0087
:080AA600696E66006F766600C0
:00000001FF
