:100000000C9462000C948A000C948A000C948A0070
:100010000C948A000C948A000C948A000C948A0038
:100020000C948A000C948A000C948A000C948A0028
:100030000C948A000C948A000C948A000C948A0018
:100040000C9404030C948A000C948A000C948A008B
:100050000C948A000C948A000C948A000C948A00F8
:100060000C948A000C948A00000000080002010031
:100070000003040700000000000000000102040863
:100080001020408001020408102001020408102002
:10009000040404040404040402020202020203032E
:1000A00003030303000000002300260029000000D2
:1000B0000000250028002B0000000000240027007D
:1000C0002A00400111241FBECFEFD8E0DEBFCDBF14
:1000D00011E0A0E0B1E0E0E1FEE002C005900D9289
:1000E000AE32B107D9F721E0AEE2B1E001C01D9216
:1000F000A535B207E1F710E0C4ECD0E004C02297C8
:10010000FE010E940207C23CD107C9F70E94A40465
:100110000C9406070C940000CF92DF92EF92FF92AE
:100120000F931F93E82FF92F05C0015011092109E2
:10013000310961F1908196239417B9F305C00150FC
:1001400011092109310911F1908196239413F7CFF8
:10015000C12CD12CE12CF12C0AC08FEFC81AD80A7F
:10016000E80AF80A0C151D052E053F0579F0808177
:100170008623841791F36C2D7D2D8E2D9F2D1F913D
:100180000F91FF90EF90DF90CF90089560E070E0C6
:1001900080E090E01F910F91FF90EF90DF90CF9063
:1001A000089520E042E060E184E391E00E941D02B6
:1001B00061E086E00E94080460E085E00C94080499
:1001C00068EE73E080E090E00E94710360E086E0FA
:1001D0000E94410482E090E00E94990361E086E081
:1001E0000E9441048AE090E00E94990360E086E06A
:1001F0000E94410420E432E44FE050E061E085E0F9
:100200000E94770460933001709331018093320132
:10021000909333010E94EF0526E933E44BE05DE360
:100220000E947B0620E030E040E05FE30E947B0616
:100230000E94BC0570932F0160932E0140E060E0A6
:1002400084E391E00E94030260E071E084E391E0C6
:100250000E94F10460912E0170912F014AE050E05C
:1002600084E391E00E94B30541E060E084E391E023
:100270000E9403026AE071E084E391E00C94FE04C2
:10028000CF92EF920F938BE0C82E9AE0E92E09E00F
:1002900028E041E060E084E391E00E94D8020F9101
:1002A000EF90CF900895CF93DF93EC0160E08E81C3
:1002B0000E94410481E090E00E94990361E08E81F8
:1002C0000E94410481E090E00E94990360E08E81E9
:1002D0000E94410484E690E0DF91CF910C94990351
:1002E000CF92DF92EF92FF920F931F93CF93DF9302
:1002F0007C01C0E0D0E0C62ED12C87010C0F1D1F61
:1003000061E0F80187810E940804B6010C2E02C04A
:10031000759567950A94E2F76170F80187810E94EC
:1003200041042196C430D10541F7C701DF91CF9137
:100330001F910F91FF90EF90DF90CF900C9453019D
:10034000CF92DF92EF92FF920F931F93CF93DF93A1
:100350007C01C0E0D0E0C62ED12C87010C0F1D1F00
:1003600061E0F80187810E940804B6010C2E02C0EA
:10037000759567950A94E2F76170F80187810E948C
:1003800041042196C830D10541F7C701DF91CF91D3
:100390001F910F91FF90EF90DF90CF900C9453013D
:1003A0001F93CF93DF93EC01162F642F8C810E9453
:1003B00041048D818F3F19F060E00E9441048F85D8
:1003C000612F84FF06C0CE01DF91CF911F910C9465
:1003D000A00170E084E0759567958A95E1F7CE01FC
:1003E0000E947001612FCE01DF91CF911F910C947B
:1003F000700140E00C94D00161E00E94F90180EDB1
:1004000097E00C949903443008F043E0FC01238901
:10041000421710F04FEF420FFC01E40FF11D248949
:10042000260F2068622F0C94F901FC016089262FA9
:100430002460208B6C600C94F901CF93DF93EC0166
:10044000423018F08F8588608F874B8B1C8A80E440
:100450008D8B6E8B70E0605C7F4F6F8B222329F059
:10046000413019F48F8584608F8780E593EC0E947A
:10047000990360E08C810E94410460E08E810E94BB
:1004800041048D818F3F19F060E00E9441046F8527
:1004900064FD1DC063E0CE010E94700184E991E11A
:1004A0000E94990363E0CE010E94700184E991E10A
:1004B0000E94990363E0CE010E94700186E990E0FA
:1004C0000E94990362E0CE010E94700116C0606232
:1004D000CE010E94F90184E991E10E9499036F85A0
:1004E0006062CE010E94F90186E990E00E949903C2
:1004F0006F856062CE010E94F9016F856062CE0156
:100500000E94F90184E0888BCE010E941502CE0181
:100510000E94FC0182E0898B66E0CE01DF91CF91E1
:100520000C94F9016F927F928F92AF92CF92EF92DB
:100530000F931F93CF93DF93CDB7DEB73C01162FF8
:10054000842F5D854E853F859889F30184832583BB
:100550000683E782C086A1868286538744873587D3
:10056000968761E00E940804F30185818F3F19F0AE
:1005700061E00E94080461E0F30186810E940804A2
:10058000112319F0F301178603C080E1F301878777
:1005900020E041E060E1C301DF91CF911F910F9115
:1005A000EF90CF90AF908F907F906F900C941D0242
:1005B0008F92AF92CF92EF920F93DC0113961C9221
:1005C0001E921297E9E1F1E0ED93FC931F921F92C6
:1005D0001F921F928C2CAE2CC02EE22E042F2FEFD8
:1005E000462F61E00E9492020F900F900F900F90A3
:1005F0000F91EF90CF90AF908F90089541E00E94BF
:10060000D00181E090E008951F920F920FB60F92F3
:1006100011242F933F938F939F93AF93BF93809118
:100620004D0190914E01A0914F01B0915001309138
:100630004C0123E0230F2D3720F40196A11DB11D9D
:1006400005C026E8230F0296A11DB11D20934C0181
:1006500080934D0190934E01A0934F01B0935001B0
:100660008091510190915201A0915301B091540198
:100670000196A11DB11D8093510190935201A09349
:100680005301B0935401BF91AF919F918F913F91CE
:100690002F910F900FBE0F901F9018953FB7F894B1
:1006A0008091510190915201A0915301B091540158
:1006B00026B5A89B05C02F3F19F00196A11DB11DBD
:1006C0003FBF6627782F892F9A2F620F711D811DDA
:1006D000911D42E0660F771F881F991F4A95D1F739
:1006E0000895CF92DF92EF92FF92CF93DF936B0149
:1006F0007C010E944E03EB01C114D104E104F1041A
:1007000089F00E94BB050E944E036C1B7D0B683E66
:10071000734090F381E0C81AD108E108F108C8518C
:10072000DC4FEACFDF91CF91FF90EF90DF90CF9039
:1007300008958230910538F0880F991F880F991F0E
:1007400005970197F1F70895789484B5826084BD88
:1007500084B5816084BD85B5826085BD85B58160C5
:1007600085BDEEE6F0E0808181608083E1E8F0E025
:100770001082808182608083808181608083E0E854
:10078000F0E0808181608083E1EBF0E08081846033
:100790008083E0EBF0E0808181608083EAE7F0E035
:1007A0008081846080838081826080838081816099
:1007B00080838081806880831092C1000895833097
:1007C00081F028F4813099F08230A1F008958730CB
:1007D000A9F08830B9F08430D1F4809180008F7D09
:1007E00003C0809180008F7780938000089584B546
:1007F0008F7702C084B58F7D84BD08958091B0004D
:100800008F7703C08091B0008F7D8093B0000895F2
:10081000CF93DF9390E0FC01E458FF4F2491FC015B
:10082000E057FF4F8491882349F190E0880F991F8A
:10083000FC01E854FF4FA591B49182559F4FFC01F4
:10084000C591D4919FB7611108C0F8948C912095FF
:1008500082238C93888182230AC0623051F4F894F9
:100860008C91322F309583238C938881822B8883BF
:1008700004C0F8948C91822B8C939FBFDF91CF9111
:1008800008950F931F93CF93DF931F92CDB7DEB7D9
:10089000282F30E0F901E859FF4F8491F901E4581D
:1008A000FF4F1491F901E057FF4F04910023C9F065
:1008B000882321F069830E94DF036981E02FF0E043
:1008C000EE0FFF1FE255FF4FA591B4919FB7F8942B
:1008D0008C91611103C01095812301C0812B8C93F1
:1008E0009FBF0F90DF91CF911F910F9108950F93AC
:1008F0001F93762F90E0FC01E458FF4F6491FC01B8
:10090000E057FF4FE4917111762FF0E0EE0FFF1FDB
:10091000EC55FF4F8591949189019A013F70472FC3
:100920000E948C00611571058105910531F06F5FA2
:100930007F4F8F4F9F4F9F7003C060E070E0CB01EF
:100940001F910F91089508950E94A4030E94A3048B
:100950000E94D100C0E0D0E00E94E0002097E1F3C7
:100960000E940000F9CFCF92DF92EF92FF920F9397
:100970001F93CF93DF936C017A01EB01E60EF71E14
:1009800000E010E0CE15DF0561F06991D601ED9130
:10099000FC910190F081E02DC6010995080F191F07
:1009A000F1CFC801DF91CF911F910F91FF90EF9090
:1009B000DF90CF9008956115710581F0DB010D90F6
:1009C0000020E9F7AD0141505109461B570BDC01EE
:1009D000ED91FC910280F381E02D099480E090E09C
:1009E00008950C94DB04DC01ED91FC910190F08101
:1009F000E02D09946DE171E00C94DB040F931F93DB
:100A0000CF93DF93EC010E94DB048C01CE010E94A6
:100A1000FA04800F911FDF91CF911F910F910895DC
:100A20008F929F92AF92BF92CF92DF92EF92FF92FE
:100A30000F931F93CF93DF93CDB7DEB7A1970FB678
:100A4000F894DEBF0FBECDBF7C01C42EE52FCB01D5
:100A5000D22E19A221E02D1510F02AE0D22E8E01FF
:100A60000F5D1F4F8D2C912CA12CB12C6C2D7E2F46
:100A7000A50194010E94DE068C2DD29E80191124BE
:100A8000015011098A3014F4805D01C0895CF801BD
:100A90008083211531054105510521F0C22EE32F38
:100AA000CA01E4CFB801C7010E94DB04A1960FB6CA
:100AB000F894DEBF0FBECDBFDF91CF911F910F9194
:100AC000FF90EF90DF90CF90BF90AF909F908F906E
:100AD0000895CF92DF92EF92FF920F931F93CF93DF
:100AE000DF93EC016A017B012115310579F4E8817E
:100AF000F9810190F081E02D642FDF91CF911F915A
:100B00000F91FF90EF90DF90CF9009942A3031053C
:100B1000E9F477FF1AC06DE20E94F3048C014427C8
:100B20005527BA014C195D096E097F092AE0CE01EB
:100B30000E941005800F911FDF91CF911F910F919F
:100B4000FF90EF90DF90CF9008952AE0B701A601C3
:100B5000CE01DF91CF911F910F91FF90EF90DF9029
:100B6000CF900C9410059A01AB01662757FD609554
:100B7000762F0C946905089504D06894B111B5C01E
:100B8000089598D088F09F5790F0B92F9927B751C2
:100B9000A0F0D1F0660F771F881F991F1AF0BA9541
:100BA000C9F712C0B13081F09FD0B1E008959CC068
:100BB000672F782F8827B85F39F0B93FCCF3869537
:100BC00077956795B395D9F73EF490958095709594
:100BD00061957F4F8F4F9F4F0895E89409C097FB11
:100BE0003EF490958095709561957F4F8F4F9F4F04
:100BF0009923A9F0F92F96E9BB279395F695879548
:100C000077956795B795F111F8CFFAF4BB0F11F40A
:100C100060FF1BC06F5F7F4F8F4F9F4F16C08823B1
:100C200011F096E911C0772321F09EE8872F762FE7
:100C300005C0662371F096E8862F70E060E02AF028
:100C40009A95660F771F881FDAF7880F9695879514
:100C500097F9089597F99F6780E870E060E008953C
:100C60009FEF80EC089500240A94161617061806C4
:100C70000906089500240A941216130614060506A0
:100C80000895092E0394000C11F4882352F0BB0F31
:100C900040F4BF2B11F460FF04C06F5F7F4F8F4F94
:100CA0009F4F089557FD9058440F551F59F05F3FCF
:100CB00071F04795880F97FB991F61F09F3F79F07E
:100CC00087950895121613061406551FF2CF469500
:100CD000F1DF08C0161617061806991FF1CF869582
:100CE0007105610508940895E894BB276627772766
:100CF000CB0197F908950BD0C4CFB5DF28F0BADF48
:100D000018F0952309F0A6CFABCF1124EECFCADFA0
:100D1000A0F3959FD1F3950F50E0551F629FF0010E
:100D2000729FBB27F00DB11D639FAA27F00DB11D67
:100D3000AA1F649F6627B00DA11D661F829F2227F0
:100D4000B00DA11D621F739FB00DA11D621F839F77
:100D5000A00D611D221F749F3327A00D611D231F4D
:100D6000849F600D211D822F762F6A2F11249F579B
:100D700050408AF0E1F088234AF0EE0FFF1FBB1FBE
:100D8000661F771F881F91505040A9F79E3F51055D
:100D900070F060CFAACF5F3FECF3983EDCF386950E
:100DA00077956795B795F795E7959F5FC1F7FE2B08
:100DB000880F911D9695879597F90895A1E21A2EAF
:100DC000AA1BBB1BFD010DC0AA1FBB1FEE1FFF1FEF
:100DD000A217B307E407F50720F0A21BB30BE40B3F
:100DE000F50B661F771F881F991F1A9469F7609586
:100DF0007095809590959B01AC01BD01CF01089540
:100E0000EE0FFF1F0590F491E02D0994F894FFCFA9
:100E100044697374616E63653A00554C5452415392
:100E20004F4E49430000000000FE02B3040D0A00CB
:0E0E30006E616E00696E66006F7666002E00C1
:00000001FF
