:100000000C945D000C9485000C9485000C94850084
:100010000C9485000C9485000C9485000C9485004C
:100020000C9485000C9485000C9485000C9485003C
:100030000C9485000C9485000C9485000C9485002C
:100040000C941D020C9485000C9485000C94850082
:100050000C9485000C9485000C9485000C9485000C
:100060000C9485000C94850000000008000201003B
:100070000003040700000000000000000102040863
:100080001020408001020408102001020408102002
:10009000040404040404040402020202020203032E
:1000A0000303030300000000250028002B000000CC
:1000B0000000240027002A00080211241FBECFEFF1
:1000C000D8E0DEBFCDBF11E0A0E0B1E0E8E8F7E0A6
:1000D00002C005900D92A43FB107D9F722E0A4EF2A
:1000E000B1E001C01D92AD33B207E1F710E0CAEBF9
:1000F000D0E004C02297FE010E94BE03C83BD10796
:10010000C9F70E9485030C94C2030C94000061E0BF
:100110008091E2010E94D60261E08091E4010E9498
:10012000D60261E08091E0010E94D60261E08091F8
:10013000DC010E94D60261E08091DE010E94D602BD
:1001400061E08091DA010E94D6024091F60150915F
:10015000F70128EF31E080E090E04817590734F0CC
:10016000F901E80FF91F10820196F7CF295F3F4F81
:1001700082E02033380779F70895CF92DF92EF922B
:10018000FF920F931F93CF93DF9388EFE82E81E0C8
:10019000F82EC0E0D0E0CC24C394D12C60E0809154
:1001A000DC010E940F0396010C2E01C0220F0A945D
:1001B000EAF741E06091DE018091DA010E94450397
:1001C00060E08091E2010E940F030091F60110911E
:1001D000F70117FD0EC0F701E00FF11F208141E08C
:1001E0006091E4018091E0010E94450301501109F2
:1001F000F0CF61E08091E2010E940F0361E0809105
:10020000DC010E940F038CE291E00E9467022196BC
:1002100087E0E80EF11CC830D10509F0BFCFDF91AF
:10022000CF911F910F91FF90EF90DF90CF900895A5
:100230000F931F93CF93DF938B0197FD07969C013C
:1002400053E0359527955A95E1F7809132029091C8
:10025000330268E070E00E949403C1E0D0E001C086
:10026000CC0F8A95EAF780913002909131024423B5
:10027000B1F047E0409FF001419FF00D1124E20FE3
:10028000F31FE850FE4F489FD001499FB00D112445
:10029000A20FB31FA850BE4F8C918C2B16C047E005
:1002A000409FF001419FF00D1124E20FF31FE85031
:1002B000FE4F489FD001499FB00D1124A20FB31FDC
:1002C000A850BE4FC0958C918C238083DF91CF9135
:1002D0001F910F9108958F929F92AF92BF92CF92EC
:1002E000DF92EF92FF920F931F93CF93DF9318EE5D
:1002F000E12E11E0F12E07E0A02EB12C82EFE816DE
:1003000081E0F80609F475C0F701C1907F01DD2492
:10031000C7FCD094F0E4CF1AD108D7FE02C0C12C9C
:10032000D12CD3E0CC0CDD1CDA95E1F7C60180506E
:100330009F4F6C0100E010E04601800E911EC0E06E
:10034000D0E00530110569F0F401408150E0C501AD
:100350008C1B9D0B02C0559547958A95E2F741701D
:1003600001C040E08091F4019091F501BE01019738
:100370000E9418012196C830D10519F7C0E0D0E0DD
:100380008091E6019091E701C817D90724F40E94F3
:10039000BD002196F5CF6091D8017091D901A0914F
:1003A000F601B091F70128EF31E080E090E0861788
:1003B000970794F4F901E80FF91F408150E0559533
:1003C000479540838A179B072CF4C181C0FF02C068
:1003D000406840830196EBCF295F3F4FF2E0203326
:1003E0003F0719F70F5F1F4F0630110509F0A4CF23
:1003F00085CFDF91CF911F910F91FF90EF90DF900C
:10040000CF90BF90AF909F908F9008950C946B0108
:100410008091D8019091D9019C01215031093093EC
:10042000F7012093F60123E0880F991F2A95E1F741
:100430009093F5018093F40108951F920F920FB6E7
:100440000F9211242F933F938F939F93AF93BF935A
:100450008091350290913602A0913702B091380216
:100460003091340223E0230F2D3720F40196A11D93
:10047000B11D05C026E8230F0296A11DB11D2093D2
:1004800034028093350290933602A0933702B093E2
:1004900038028091390290913A02A0913B02B091CA
:1004A0003C020196A11DB11D8093390290933A023E
:1004B000A0933B02B0933C02BF91AF919F918F916B
:1004C0003F912F910F900FBE0F901F901895823083
:1004D000910538F0880F991F880F991F059701978C
:1004E000F1F70895789484B5826084BD84B5816005
:1004F00084BD85B5826085BD85B5816085BDEEE62C
:10050000F0E0808181608083E1E8F0E0108280810A
:1005100082608083808181608083E0E8F0E0808178
:1005200081608083E1EBF0E0808184608083E0EB98
:10053000F0E0808181608083EAE7F0E08081846080
:1005400080838081826080838081816080838081DC
:10055000806880831092C1000895833081F028F470
:10056000813099F08230A1F008958730A9F0883069
:10057000B9F08430D1F4809180008F7D03C08091E8
:1005800080008F7780938000089584B58F7702C0B4
:1005900084B58F7D84BD08958091B0008F7703C0AE
:1005A0008091B0008F7D8093B0000895CF93DF934A
:1005B00090E0FC01E458FF4F2491FC01E057FF4F0D
:1005C0008491882349F190E0880F991FFC01E2553E
:1005D000FF4FA591B4918C559F4FFC01C591D491CB
:1005E0009FB7611108C0F8948C91209582238C9359
:1005F000888182230AC0623051F4F8948C91322FA2
:10060000309583238C938881822B888304C0F8944F
:100610008C91822B8C939FBFDF91CF9108950F9384
:100620001F93CF93DF931F92CDB7DEB7282F30E013
:10063000F901E859FF4F8491F901E458FF4F1491F3
:10064000F901E057FF4F04910023C9F0882321F0FE
:1006500069830E94AD026981E02FF0E0EE0FFF1F79
:10066000EC55FF4FA591B4919FB7F8948C9161110F
:1006700003C01095812301C0812B8C939FBF0F90E5
:10068000DF91CF911F910F910895BF92CF92DF928A
:10069000EF92FF920F931F93CF93DF93C82ED62E26
:1006A000B42EC7E0D0E0022F10E087E0E82EF12C56
:1006B000B1100AC0F701EC1BFD0BB80102C0759523
:1006C0006795EA95E2F707C0B8010C2E02C0759550
:1006D00067950A94E2F7617077278C2D0E940F03CB
:1006E00061E08D2D0E940F0360E08D2D0E940F03AD
:1006F0002197F0F6DF91CF911F910F91FF90EF902E
:10070000DF90CF90BF90089508950E9472020E94DA
:1007100084030E948700C0E0D0E00E940602209778
:10072000E1F30E940000F9CF97FB072E16F4009426
:1007300007D077FD09D00E94A80307FC05D03EF43E
:10074000909581959F4F0895709561957F4F08957D
:10075000AA1BBB1B51E107C0AA1FBB1FA617B707E7
:1007600010F0A61BB70B881F991F5A95A9F7809503
:100770009095BC01CD010895EE0FFF1F0590F491F7
:08078000E02D0994F894FFCF6D
:1007880000000000000000001F2444241F00000097
:100798007F494949360000003E414141220000009E
:1007A8007F4141221C0000007F494941410000006F
:1007B8007F484848400000003E414145260000006F
:1007C8007F0808087F00000000417F41000000000A
:1007D800020101017E0000007F0814224100000090
:1007E8007F010101010000007F2010207F00000030
:1007F8007F2010087F0000003E4141413E0000007C
:100808007F484848300000003E4145423D00000016
:100818007F484C4A3100000032494949260000000F
:1008280040407F40400000007E0101017E00000042
:100838007C0201027C0000007E0106017E000000AF
:10084800631408146300000060100F1060000000BB
:1008580043454951610000000700070006000500F4
:100868000400030002000A0045415359205445433F
:040878004820000014
:00000001FF
