:100000000C945E000C9486000C9486000C94860080
:100010000C9486000C9486000C9486000C94860048
:100020000C9486000C9486000C9486000C94860038
:100030000C9486000C9486000C9486000C94860028
:100040000C943F030C9486000C94EC050C941E0653
:100050000C9486000C9486000C9486000C94860008
:100060000C9412020C9486000000000800020100AB
:100070000003040700000000000000000102040863
:100080001020408001020408102001020408102002
:10009000040404040404040402020202020203032E
:1000A0000303030300000000250028002B000000CC
:1000B0000000240027002A00B9014E0611241FBEAB
:1000C000CFEFD8E0DEBFCDBF11E0A0E0B1E0E4ECBF
:1000D000FFE002C005900D92AC33B107D9F722E0E2
:1000E000ACE3B1E001C01D92A73AB207E1F710E01E
:1000F000CCEBD0E004C02297FE010E94DC07C83B95
:10010000D107C9F70E9492060C94E0070C940000F6
:1001100061E0809100010E94380461E070E08EE3AC
:1001200091E00E94B20163EA70E08EE391E00E94E8
:10013000B40126E040E855E260E070E08AE092E039
:100140000C948A0508958EE391E00E94D700909365
:100150003D0180933C014AE050E0BC018AE092E01E
:100160000E949F0762E071E08AE092E00E94EA0646
:1001700080913C0190913D01019781F461E0809173
:1001800000010E94710468EB7BE080E090E00E9437
:10019000AC0360E0809100010C947104089580919B
:1001A000710190E020917201821B910908952091C4
:1001B000720180917101281750F4E22FF0E0ED58A0
:1001C000FE4F808190E02F5F2093720108958FEFA2
:1001D0009FEF0895E091720180917101E81730F46A
:1001E000F0E0ED58FE4F808190E008958FEF9FEF93
:1001F00008950895E0914A01F0914B013097E1F0A4
:1002000030917201209171013217B0F040E0242F3B
:1002100030E02617370754F4DC01A20FB31F5C91BE
:10022000D901AD58BE4F5C934F5FF1CF1092720170
:1002300060937101CB0109940895E0914C01F09114
:100240004D01309729F01092500110924F010994FE
:100250000895CF92DF92EF92FF920F931F93CF9367
:10026000DF937C01CB018A0120914E01222389F08A
:10027000EB016B01C40ED51ECC15DD0569F069914B
:10028000D701ED91FC910190F081E02DC701099516
:10029000F3CF642F0E94DF01C801DF91CF911F913E
:1002A0000F91FF90EF90DF90CF900895CF93DF9361
:1002B0001F92CDB7DEB7698320914E012223D1F082
:1002C00020914F01203240F021E030E0FC013383E7
:1002D000228380E090E015C080915001E82FF0E08B
:1002E000EF5AFE4F998190838F5F809350018093E6
:1002F0004F0105C061E0CE0101960E94DF0181E05F
:1003000090E00F90DF91CF910895FC01138212824B
:1003100048EE53E060E070E0448355836683778362
:100320008FE091E091838083089510927201109282
:1003300071011092500110924F010C94BD01CF93A6
:10034000DF93EC01862F0E94DB018DE191E00E949A
:10035000FD018AEF90E00E94F801CE01DF91CF917C
:100360000C9495010C949F0170934B0160934A018A
:1003700008958EE391E00C9485011092000281E0D3
:100380008093FE011092FD0161E082E10E94710400
:1003900061E083E10E947104E9EBF0E080818E7FEF
:1003A000808380818D7F808388E48093B80085E49A
:1003B0008093BC000895880F8093BA00089561323D
:1003C00098F420910002243089F46093B501FC0177
:1003D00087EB91E0DC012A2F281B261718F42191C6
:1003E0002D93F9CF80E0089581E0089582E008958B
:1003F0009093FA018093F90108959093FC01809302
:10040000FB01089585ED8093BC008091BC0084FDC4
:10041000FCCF10920002089585EC8093BC001092EE
:10042000000208951F920F920FB60F9211242F937E
:100430003F934F935F936F937F938F939F93AF936C
:10044000BF93EF93FF938091B900887F803609F4C2
:100450009CC068F5883209F45BC090F4803109F4DF
:1004600054C038F4882309F4F5C0883009F44DC02D
:10047000F5C0883109F44CC0803209F45DC0EEC08B
:10048000803409F468C048F4803309F455C08833D7
:1004900009F0E4C080939301A8C0803509F44FC0EF
:1004A000883509F45DC0883409F0D8C0D5C08839D2
:1004B00009F4C6C0A8F4883709F467C038F4883650
:1004C00009F463C0803709F460C0C8C0883809F4F3
:1004D000B7C0803909F45FC0803809F0BFC05BC085
:1004E000803B09F485C038F4803A09F466C0883A44
:1004F00009F47EC0B3C0803C09F4A6C0883C09F46E
:10050000A3C0883B09F489C0A9C08091FF0110C035
:100510009091D8018091D701981770F5E091D8019A
:1005200081E08E0F8093D801F0E0E752FE4F80818A
:100530008093BB0085EC85C0809393018DC0E091D2
:10054000D80181E08E0F8093D8018091BB00F0E04C
:10055000E752FE4F80839091D8018091D7016DC002
:10056000E091D80181E08E0F8093D8018091BB008B
:10057000F0E0E752FE4F80838091FE0181116CC054
:1005800081E08093FD0184EA60C083E080930002F3
:1005900010929401CFCF80919401803208F050C026
:1005A000E091940181E08E0F809394018091BB00D3
:1005B000F0E0EB56FE4F8083BDCF809194018032F6
:1005C00030F4E0919401F0E0EB56FE4F10820E946F
:1005D00002026091940170E0E091F901F091FA015A
:1005E00085E991E00995109294010E940C0236C0B1
:1005F00084E0809300021092B6011092B501E09160
:10060000FB01F091FC0109958091B501811105C0B4
:1006100081E08093B5011092B701E091B60181E0CD
:100620008E0F8093B601F0E0E954FE4F80818093F5
:10063000BB009091B6018091B501981708F47ACF6C
:1006400085E88093BC000AC085EC8093BC001092C2
:10065000000204C0109293010E940202FF91EF91E8
:10066000BF91AF919F918F917F916F915F914F91CA
:100670003F912F910F900FBE0F901F9018951F92D2
:100680000F920FB60F9211242F933F938F939F9346
:10069000AF93BF938091020290910302A091040254
:1006A000B09105023091010223E0230F2D3720F491
:1006B0000196A11DB11D05C026E8230F0296A11DBC
:1006C000B11D209301028093020290930302A09334
:1006D0000402B09305028091060290910702A09156
:1006E0000802B09109020196A11DB11D8093060276
:1006F00090930702A0930802B0930902BF91AF91B3
:100700009F918F913F912F910F900FBE0F901F904F
:1007100018953FB7F8948091060290910702A09136
:100720000802B091090226B5A89B05C02F3F19F019
:100730000196A11DB11D3FBF6627782F892F9A2FE3
:10074000620F711D811D911D42E0660F771F881F8A
:10075000991F4A95D1F70895CF92DF92EF92FF92B9
:10076000CF93DF936B017C010E948903EB01C114DD
:10077000D104E104F10489F00E94B7070E948903C3
:100780006C1B7D0B683E734090F381E0C81AD10862
:10079000E108F108C851DC4FEACFDF91CF91FF901B
:1007A000EF90DF90CF900895789484B5826084BDF7
:1007B00084B5816084BD85B5826085BD85B5816065
:1007C00085BDEEE6F0E0808181608083E1E8F0E0C5
:1007D0001082808182608083808181608083E0E8F4
:1007E000F0E0808181608083E1EBF0E080818460D3
:1007F0008083E0EBF0E0808181608083EAE7F0E0D5
:100800008081846080838081826080838081816038
:1008100080838081806880831092C1000895833036
:1008200081F028F4813099F08230A1F0089587306A
:10083000A9F08830B9F08430D1F4809180008F7DA8
:1008400003C0809180008F7780938000089584B5E5
:100850008F7702C084B58F7D84BD08958091B000EC
:100860008F7703C08091B0008F7D8093B000089592
:10087000CF93DF9390E0FC01E458FF4F2491FC01FB
:10088000E057FF4F8491882349F190E0880F991F2A
:10089000FC01E255FF4FA591B4918C559F4FFC018F
:1008A000C591D4919FB7611108C0F8948C9120959F
:1008B00082238C93888182230AC0623051F4F89499
:1008C0008C91322F309583238C938881822B88835F
:1008D00004C0F8948C91822B8C939FBFDF91CF91B1
:1008E00008950F931F93CF93DF931F92CDB7DEB779
:1008F000282F30E0F901E859FF4F8491F901E458BD
:10090000FF4F1491F901E057FF4F04910023C9F004
:10091000882321F069830E940F046981E02FF0E0B1
:10092000EE0FFF1FEC55FF4FA591B4919FB7F894C0
:100930008C91611103C01095812301C0812B8C9390
:100940009FBF0F90DF91CF911F910F910895FC01F0
:10095000818D228D90E0805C9F4F821B91098F7367
:1009600099270895FC01918D828D981731F0828D21
:10097000E80FF11D858D90E008958FEF9FEF0895AA
:10098000FC01918D828D981761F0828DDF01A80F97
:10099000B11D5D968C91928D9F5F9F73928F90E0B9
:1009A00008958FEF9FEF089584E496E0892B49F036
:1009B00080E090E0892B29F00E94440681110C947C
:1009C00000000895FC01848DDF01A80FB11DA35A1A
:1009D000BF4F2C91848D90E001968F739927848F5F
:1009E000A689B7892C93A089B1898C9180648C9356
:1009F000938D848D981306C00288F389E02D808141
:100A00008F7D80830895CF93DF93EC01888D8823B9
:100A1000C9F0EA89FB89808185FD05C0A889B9896B
:100A20008C9186FD0FC00FB607FCF5CF808185FF46
:100A3000F2CFA889B9898C9185FFEDCFCE010E94B4
:100A4000E204E7CFDF91CF910895CF92DF92FF923A
:100A50000F931F93CF93DF931F92CDB7DEB76C0137
:100A600081E0D60158968C9358975B969C915B9742
:100A70005C968C915C97981307C05096ED91FC9111
:100A80005197808185FD2EC0F601038D10E00F5F28
:100A90001F4F0F731127F02EF601848DF81211C02D
:100AA0000FB607FCF9CFD6015096ED91FC91519706
:100AB000808185FFF1CFC60169830E94E2046981CC
:100AC000EBCF838DE80FF11DE35AFF4F6083D60112
:100AD0005B960C935B975296ED91FC9153978081B6
:100AE00080620CC0D6015696ED91FC9157976083B9
:100AF0005096ED91FC91519780818064808381E0D4
:100B000090E00F90DF91CF911F910F91FF90DF90B8
:100B1000CF900895BF92CF92DF92EF92FF92CF9342
:100B2000DF93EC016A017B01B22EE889F98982E04A
:100B30008083411581EE580761057105A1F060E0E1
:100B400079E08DE390E0A70196010E94B80721505B
:100B50003109410951095695479537952795211532
:100B600080E1380798F0E889F989108260E874E834
:100B70008EE190E0A70196010E94B807215031094B
:100B8000410951095695479537952795EC85FD857F
:100B90003083EE85FF852083188EEC89FD89B08235
:100BA000EA89FB89808180618083EA89FB89808171
:100BB00088608083EA89FB89808180688083EA89F4
:100BC000FB8980818F7D8083DF91CF91FF90EF90B3
:100BD000DF90CF90BF9008951F920F920FB60F92A3
:100BE00011242F938F939F93EF93FF93E0911A0219
:100BF000F0911B028081E0912002F091210282FDA0
:100C000012C09081809123028F5F8F732091240204
:100C1000821751F0E0912302F0E0E65FFD4F958FDF
:100C20008093230201C08081FF91EF919F918F916A
:100C30002F910F900FBE0F901F9018951F920F923B
:100C40000FB60F9211242F933F934F935F936F939F
:100C50007F938F939F93AF93BF93EF93FF938AE01C
:100C600092E00E94E204FF91EF91BF91AF919F91BA
:100C70008F917F916F915F914F913F912F910F9045
:100C80000FBE0F901F9018958AE092E00E94A70473
:100C900021E0892B09F420E0822F089510920D02A3
:100CA00010920C0288EE93E0A0E0B0E080930E0278
:100CB00090930F02A0931002B09311028FE191E084
:100CC00090930B0280930A0285EC90E090931702B8
:100CD0008093160284EC90E090931902809318029E
:100CE00080EC90E090931B0280931A0281EC90E0DC
:100CF00090931D0280931C0282EC90E090931F025F
:100D000080931E0286EC90E0909321028093200253
:100D100010922302109224021092250210922602B1
:100D2000089508950E94D4030E9491060E948800AD
:100D3000C4EDD4E00E94A2002097E1F30E94D40405
:100D4000F9CFCF92DF92EF92FF920F931F93CF9341
:100D5000DF936C017A01EB01E60EF71E00E010E074
:100D6000CE15DF0561F06991D601ED91FC910190FE
:100D7000F081E02DC6010995080F191FF1CFC801B8
:100D8000DF91CF911F910F91FF90EF90DF90CF9067
:100D900008956115710581F0DB010D900020E9F7E0
:100DA000AD0141505109461B570BDC01ED91FC91FF
:100DB0000280F381E02D099480E090E00895DC0149
:100DC000ED91FC910190F081E02D09946BE271E0CE
:100DD0000C94C9060F931F93CF93DF93EC010E94ED
:100DE000C9068C01CE010E94E606800F911FDF919B
:100DF000CF911F910F9108958F929F92AF92BF92C2
:100E0000CF92DF92EF92FF920F931F93CF93DF93D6
:100E1000CDB7DEB7A1970FB6F894DEBF0FBECDBF3A
:100E20007C01C42EE52FCB01D22E19A221E02D1575
:100E300010F02AE0D22E8E010F5D1F4F8D2C912CC9
:100E4000A12CB12C6C2D7E2FA50194010E94B80716
:100E50008C2DD29E80191124015011098A3014F46E
:100E6000805D01C0895CF801808321153105410551
:100E7000510521F0C22EE32FCA01E4CFB801C7010A
:100E80000E94C906A1960FB6F894DEBF0FBECDBF73
:100E9000DF91CF911F910F91FF90EF90DF90CF9056
:100EA000BF90AF909F908F900895CF92DF92EF9276
:100EB000FF920F931F93CF93DF93EC016A017B01A5
:100EC0002115310579F4E881F9810190F081E02D57
:100ED000642FDF91CF911F910F91FF90EF90DF90E2
:100EE000CF9009942A303105E9F477FF1AC06DE2FA
:100EF0000E94DF068C0144275527BA014C195D0971
:100F00006E097F092AE0CE010E94FC06800F911F26
:100F1000DF91CF911F910F91FF90EF90DF90CF90D5
:100F200008952AE0B701A601CE01DF91CF911F916C
:100F30000F91FF90EF90DF90CF900C94FC060F93F1
:100F40001F93CF93DF93EC019A01AB01662757FD06
:100F50006095762F0E9455078C01CE010E94E6060F
:100F6000800F911FDF91CF911F910F9108950895E8
:100F7000A1E21A2EAA1BBB1BFD010DC0AA1FBB1F9D
:100F8000EE1FFF1FA217B307E407F50720F0A21B0F
:100F9000B30BE40BF50B661F771F881F991F1A947C
:100FA00069F760957095809590959B01AC01BD01A6
:100FB000CF010895EE0FFF1F0590F491E02D0994E5
:040FC000F894FFCFD3
:100FC4000D00526563696576656400000000005693
:100FD400012901CF00D700EA00F900000000002534
:100FE40005A106A704C004B20403050D0A006E613E
:0C0FF4006E00696E66006F7666002E00CD
:00000001FF
