:100000000C9435000C945D000C945D000C945D0024
:100010000C945D000C945D000C945D000C945D00EC
:100020000C945D000C945D000C945D000C945D00DC
:100030000C945D000C945D000C945D000C945D00CC
:100040000C9482000C945D000C9497020C94C902ED
:100050000C945D000C945D000C945D000C945D00AC
:100060000C945D000C945D00F90211241FBECFEFCB
:10007000D8E0DEBFCDBF11E0A0E0B1E0E6E9F7E0F7
:1000800002C005900D92A832B107D9F721E0A8E28D
:10009000B1E001C01D92AE3CB207E1F710E0CAE644
:1000A000D0E004C02297FE010E94C503C836D107E4
:1000B000C9F70E943D030C94C9030C94000026E08C
:1000C00040E855E260E070E081E391E00C94350295
:1000D000E0913101F09132010280F381E02D46E0A0
:1000E00050E060E071E081E391E0099568EE73E033
:1000F00080E090E00E94EF0068E171E081E391E030
:100100000C948E031F920F920FB60F9211242F930F
:100110003F938F939F93AF93BF93809129019091C9
:100120002A01A0912B01B0912C013091280123E0EC
:10013000230F2D3720F40196A11DB11D05C026E81F
:10014000230F0296A11DB11D209328018093290140
:1001500090932A01A0932B01B0932C0180912D0143
:1001600090912E01A0912F01B09130010196A11D17
:10017000B11D80932D0190932E01A0932F01B09378
:100180003001BF91AF919F918F913F912F910F902F
:100190000FBE0F901F9018953FB7F89480912D01D6
:1001A00090912E01A0912F01B091300126B5A89B0E
:1001B00005C02F3F19F00196A11DB11D3FBF662755
:1001C000782F892F9A2F620F711D811D911D42E09A
:1001D000660F771F881F991F4A95D1F70895CF9210
:1001E000DF92EF92FF92CF93DF936B017C010E942D
:1001F000CC00EB01C114D104E104F10489F00E94A8
:10020000A0030E94CC006C1B7D0B683E734090F3F2
:1002100081E0C81AD108E108F108C851DC4FEACFE3
:10022000DF91CF91FF90EF90DF90CF900895789479
:1002300084B5826084BD84B5816084BD85B58260EB
:1002400085BD85B5816085BDEEE6F0E08081816089
:100250008083E1E8F0E01082808182608083808189
:1002600081608083E0E8F0E0808181608083E1EB61
:10027000F0E0808184608083E0EBF0E08081816049
:100280008083EAE7F0E080818460808380818260FF
:1002900080838081816080838081806880831092E8
:1002A000C1000895FC01818D228D90E0805C9F4FFC
:1002B000821B91098F7399270895FC01918D828D7E
:1002C000981731F0828DE80FF11D858D90E008952B
:1002D0008FEF9FEF0895FC01918D828D981761F04B
:1002E000828DDF01A80FB11D5D968C91928D9F5F6D
:1002F0009F73928F90E008958FEF9FEF08958FEE98
:1003000092E0892B49F080E090E0892B29F00E944F
:10031000EF0281110C9400000895FC01848DDF012F
:10032000A80FB11DA35ABF4F2C91848D90E0019668
:100330008F739927848FA689B7892C93A089B18957
:100340008C9180648C93938D848D981306C0028861
:10035000F389E02D80818F7D80830895CF93DF9393
:10036000EC01888D8823C9F0EA89FB89808185FDAD
:1003700005C0A889B9898C9186FD0FC00FB607FC0E
:10038000F5CF808185FFF2CFA889B9898C9185FF4F
:10039000EDCFCE010E948D01E7CFDF91CF9108957F
:1003A000CF92DF92FF920F931F93CF93DF931F9211
:1003B000CDB7DEB76C0181E0D60158968C93589783
:1003C0005B969C915B975C968C915C97981307C0A9
:1003D0005096ED91FC915197808185FD2EC0F601DC
:1003E000038D10E00F5F1F4F0F731127F02EF601E2
:1003F000848DF81211C00FB607FCF9CFD6015096C4
:10040000ED91FC915197808185FFF1CFC601698301
:100410000E948D016981EBCF838DE80FF11DE35AB6
:10042000FF4F6083D6015B960C935B975296ED91DC
:10043000FC915397808180620CC0D6015696ED9155
:10044000FC91579760835096ED91FC915197808174
:100450008064808381E090E00F90DF91CF911F91C5
:100460000F91FF90DF90CF900895BF92CF92DF92CF
:10047000EF92FF92CF93DF93EC016A017B01B22EE2
:10048000E889F98982E08083411581EE580761058A
:100490007105A1F060E079E08DE390E0A70196019D
:1004A0000E94A103215031094109510956954795F0
:1004B00037952795211580E1380798F0E889F98963
:1004C000108260E874E88EE190E0A70196010E9436
:1004D000A103215031094109510956954795379596
:1004E0002795EC85FD853083EE85FF852083188E6A
:1004F000EC89FD89B082EA89FB89808180618083F3
:10050000EA89FB89808188608083EA89FB89808110
:1005100080688083EA89FB8980818F7D8083DF9179
:10052000CF91FF90EF90DF90CF90BF9008951F92F2
:100530000F920FB60F9211242F938F939F93EF93E7
:10054000FF93E0914101F09142018081E0914701E8
:10055000F091480182FD12C0908180914A018F5F25
:100560008F7320914B01821751F0E0914A01F0E026
:10057000EF5CFE4F958F80934A0101C08081FF910F
:10058000EF919F918F912F910F900FBE0F901F9021
:1005900018951F920F920FB60F9211242F933F932D
:1005A0004F935F936F937F938F939F93AF93BF937B
:1005B000EF93FF9381E391E00E948D01FF91EF9112
:1005C000BF91AF919F918F917F916F915F914F916B
:1005D0003F912F910F900FBE0F901F90189581E3C0
:1005E00091E00E94520121E0892B09F420E0822F42
:1005F0000895109234011092330188EE93E0A0E048
:10060000B0E08093350190933601A0933701B09309
:1006100038018AE091E0909332018093310185ECBA
:1006200090E090933E0180933D0184EC90E09093A4
:10063000400180933F0180EC90E0909342018093D1
:10064000410181EC90E0909344018093430182EC5E
:1006500090E0909346018093450186EC90E0909362
:1006600048018093470110924A0110924B01109269
:100670004C0110924D01089508950E9417010E94A7
:100680003C030E945F00CFE7D1E00E946800209702
:10069000E1F30E947F01F9CFCF92DF92EF92FF92B8
:1006A0000F931F93CF93DF936C017A01EB01E60E5A
:1006B000F71E00E010E0CE15DF0561F06991D6016C
:1006C000ED91FC910190F081E02DC6010995080F94
:1006D000191FF1CFC801DF91CF911F910F91FF90AA
:1006E000EF90DF90CF9008956115710581F0DB01E7
:1006F0000D900020E9F7AD0141505109461B570B01
:10070000DC01ED91FC910280F381E02D099480E001
:1007100090E0089566E171E00C9474030F931F93C9
:10072000CF93DF93EC010E9474038C01CE010E94F1
:100730008A03800F911FDF91CF911F910F91089530
:100740000895A1E21A2EAA1BBB1BFD010DC0AA1F12
:10075000BB1FEE1FFF1FA217B307E407F50720F02A
:10076000A21BB30BE40BF50B661F771F881F991FA5
:100770001A9469F760957095809590959B01AC01EE
:10078000BD01CF010895EE0FFF1F0590F491E02DFC
:060790000994F894FFCF6C
:1007960048656C6C6F0000000000D0014C035201EC
:1007A6006B015D01AE010D0A006E616E00696E6639
:0807B600006F7666002E0000C2
:00000001FF
