:100000000C945D000C9485000C9485000C94850084
:100010000C9485000C9485000C9485000C9485004C
:100020000C9485000C9485000C9485000C9485003C
:100030000C9485000C9485000C9485000C9485002C
:100040000C94DF000C9485000C94A9030C94DB0342
:100050000C9485000C9485000C9485000C9485000C
:100060000C9485000C94850000000008000201003B
:100070000003040700000000000000000102040863
:100080001020408001020408102001020408102002
:10009000040404040404040402020202020203032E
:1000A0000303030300000000250028002B000000CC
:1000B0000000240027002A000B0411241FBECFEFEC
:1000C000D8E0DEBFCDBF11E0A0E0B1E0E2E6FDE0A8
:1000D00002C005900D92AC34B107D9F721E0ACE431
:1000E000B1E001C01D92A63FB207E1F710E0CAEBF4
:1000F000D0E004C02297FE010E94AB06C83BD107A6
:10010000C9F70E944F040C94AF060C94000026E03F
:1001100040E855E260E070E089E591E00E94470325
:1001200060E0809100010E94F50161E08091020190
:100130000C94F501809100010E94AF0190934F0152
:1001400080934E01BC01882777FD8095982F0E94EF
:10015000980520ED3FE34FE75EE30E9424060E94EE
:10016000650560934C0170934D01809102010E94DE
:100170002E0265E071E089E591E00E949C046091A7
:100180004E0170914F014AE050E089E591E00E94F4
:100190004C0567E171E089E591E00E949C04609163
:1001A0004C0170914D014AE050E089E591E00E94D8
:1001B0004C0568EE73E080E090E00C944C011F92D7
:1001C0000F920FB60F9211242F933F938F939F930B
:1001D000AF93BF938091510190915201A09153012F
:1001E000B09154013091500123E0230F2D3720F4BA
:1001F0000196A11DB11D05C026E8230F0296A11D81
:10020000B11D209350018093510190935201A0930E
:100210005301B09354018091550190915601A091E2
:100220005701B09158010196A11DB11D8093550150
:1002300090935601A0935701B0935801BF91AF918D
:100240009F918F913F912F910F900FBE0F901F9014
:1002500018953FB7F8948091550190915601A0915F
:100260005701B091580126B5A89B05C02F3F19F042
:100270000196A11DB11D3FBF6627782F892F9A2FA8
:10028000620F711D811D911D42E0660F771F881F4F
:10029000991F4A95D1F70895CF92DF92EF92FF927E
:1002A000CF93DF936B017C010E942901EB01C11404
:1002B000D104E104F10489F00E9464050E9429013F
:1002C0006C1B7D0B683E734090F381E0C81AD10827
:1002D000E108F108C851DC4FEACFDF91CF91FF90E0
:1002E000EF90DF90CF900895789484B5826084BDBC
:1002F00084B5816084BD85B5826085BD85B581602A
:1003000085BDEEE6F0E0808181608083E1E8F0E089
:100310001082808182608083808181608083E0E8B8
:10032000F0E0808181608083E1EBF0E08081846097
:100330008083E0EBF0E0808181608083EAE7F0E099
:1003400080818460808380818260808380818160FD
:1003500080838081806880831092C10008958E30F0
:1003600008F08E5087702091040190E4299F90013D
:100370001124822B80937C0080917A00806480938A
:100380007A0080917A0086FDFCCF809178002091E0
:10039000790090E0922B0895833081F028F4813029
:1003A00099F08230A1F008958730A9F08830B9F033
:1003B0008430D1F4809180008F7D03C080918000D3
:1003C0008F7780938000089584B58F7702C084B5BD
:1003D0008F7D84BD08958091B0008F7703C0809198
:1003E000B0008F7D8093B0000895CF93DF9390E0AD
:1003F000FC01E458FF4F2491FC01E057FF4F84912A
:10040000882349F190E0880F991FFC01E255FF4FC6
:10041000A591B4918C559F4FFC01C591D4919FB784
:10042000611108C0F8948C91209582238C93888167
:1004300082230AC0623051F4F8948C91322F3095A7
:1004400083238C938881822B888304C0F8948C91B9
:10045000822B8C939FBFDF91CF9108950F931F93B1
:10046000CF93DF931F92CDB7DEB7282F30E0F9018D
:10047000E859FF4F8491F901E458FF4F1491F901B5
:10048000E057FF4F04910023C9F0882321F06983CE
:100490000E94CC016981E02FF0E0EE0FFF1FEC55C8
:1004A000FF4FA591B4919FB7F8948C91611103C04F
:1004B0001095812301C0812B8C939FBF0F90DF91FA
:1004C000CF911F910F910895FC01818D228D90E0B5
:1004D000805C9F4F821B91098F7399270895FC01BF
:1004E000918D828D981731F0828DE80FF11D858DE9
:1004F00090E008958FEF9FEF0895FC01918D828D1C
:10050000981761F0828DDF01A80FB11D5D968C9167
:10051000928D9F5F9F73928F90E008958FEF9FEF72
:10052000089581E094E0892B49F080E090E0892BE8
:1005300029F00E94010481110C9400000895FC012F
:10054000848DDF01A80FB11DA35ABF4F2C91848D5C
:1005500090E001968F739927848FA689B7892C9391
:10056000A089B1898C9180648C93938D848D98132C
:1005700006C00288F389E02D80818F7D80830895F5
:10058000CF93DF93EC01888D8823C9F0EA89FB893A
:10059000808185FD05C0A889B9898C9186FD0FC031
:1005A0000FB607FCF5CF808185FFF2CFA889B98906
:1005B0008C9185FFEDCFCE010E949F02E7CFDF91A6
:1005C000CF910895CF92DF92FF920F931F93CF9315
:1005D000DF931F92CDB7DEB76C0181E0D60158964C
:1005E0008C9358975B969C915B975C968C915C97EB
:1005F000981307C05096ED91FC915197808185FD2D
:100600002EC0F601038D10E00F5F1F4F0F731127EF
:10061000F02EF601848DF81211C00FB607FCF9CF49
:10062000D6015096ED91FC915197808185FFF1CFD5
:10063000C60169830E949F026981EBCF838DE80F19
:10064000F11DE35AFF4F6083D6015B960C935B97D5
:100650005296ED91FC915397808180620CC0D60137
:100660005696ED91FC91579760835096ED91FC91D1
:10067000519780818064808381E090E00F90DF91CA
:10068000CF911F910F91FF90DF90CF900895BF926F
:10069000CF92DF92EF92FF92CF93DF93EC016A014A
:1006A0007B01B22EE889F98982E08083411581EED1
:1006B000580761057105A1F060E079E08DE390E0F5
:1006C000A70196010E94870621503109410951096D
:1006D0005695479537952795211580E1380798F06D
:1006E000E889F989108260E874E88EE190E0A7015A
:1006F00096010E94870621503109410951095695FA
:10070000479537952795EC85FD853083EE85FF85E8
:100710002083188EEC89FD89B082EA89FB8980816B
:1007200080618083EA89FB89808188608083EA898F
:10073000FB89808180688083EA89FB8980818F7D45
:100740008083DF91CF91FF90EF90DF90CF90BF90AB
:1007500008951F920F920FB60F9211242F938F932B
:100760009F93EF93FF93E0916901F0916A0180817B
:10077000E0916F01F091700182FD12C09081809133
:1007800072018F5F8F7320917301821751F0E09196
:100790007201F0E0E75AFE4F958F8093720101C01D
:1007A0008081FF91EF919F918F912F910F900FBEBC
:1007B0000F901F9018951F920F920FB60F92112451
:1007C0002F933F934F935F936F937F938F939F9359
:1007D000AF93BF93EF93FF9389E591E00E949F024F
:1007E000FF91EF91BF91AF919F918F917F916F9109
:1007F0005F914F913F912F910F900FBE0F901F90DF
:10080000189589E591E00E94640221E0892B09F4A2
:1008100020E0822F089510925C0110925B0188EE17
:1008200093E0A0E0B0E080935D0190935E01A0931F
:100830005F01B09360018EE291E090935A01809342
:10084000590185EC90E0909366018093650184ECFA
:1008500090E0909368018093670180EC90E0909322
:100860006A018093690181EC90E090936C01809320
:100870006B0182EC90E090936E0180936D0186ECA9
:1008800090E09093700180936F011092720110922A
:1008900073011092740110927501089508950E94D9
:1008A00074010E944E040E948700C1E9D2E00E94B8
:1008B0009A002097E1F30E949102F9CFCF92DF9244
:1008C000EF92FF920F931F93CF93DF936C017A0106
:1008D000EB01E60EF71E00E010E0CE15DF0561F03B
:1008E0006991D601ED91FC910190F081E02DC60156
:1008F0000995080F191FF1CFC801DF91CF911F9102
:100900000F91FF90EF90DF90CF90089561157105E2
:1009100081F0DB010D900020E9F7AD014150510954
:10092000461B570BDC01ED91FC910280F381E02D19
:10093000099480E090E008950C948604DC01ED9128
:10094000FC910190F081E02D09946AE371E00C9430
:1009500086048F929F92AF92BF92CF92DF92EF92D6
:10096000FF920F931F93CF93DF93CDB7DEB7A1977D
:100970000FB6F894DEBF0FBECDBF7C01C42EE52FAD
:10098000CB01D22E19A221E02D1510F02AE0D22E93
:100990008E010F5D1F4F8D2C912CA12CB12C6C2D35
:1009A0007E2FA50194010E9487068C2DD29E80196E
:1009B0001124015011098A3014F4805D01C0895C52
:1009C000F8018083211531054105510521F0C22E22
:1009D000E32FCA01E4CFB801C7010E948604A196A3
:1009E0000FB6F894DEBF0FBECDBFDF91CF911F9140
:1009F0000F91FF90EF90DF90CF90BF90AF909F90BE
:100A00008F900895CF92DF92EF92FF920F931F93F2
:100A1000CF93DF93EC016A017B012115310579F455
:100A2000E881F9810190F081E02D642FDF91CF9171
:100A30001F910F91FF90EF90DF90CF9009942A3093
:100A40003105E9F477FF1AC06DE20E949E048C0123
:100A500044275527BA014C195D096E097F092AE020
:100A6000CE010E94A904800F911FDF91CF911F91A9
:100A70000F91FF90EF90DF90CF9008952AE0B7019B
:100A8000A601CE01DF91CF911F910F91FF90EF90C2
:100A9000DF90CF900C94A9040F931F93CF93DF9313
:100AA000EC019A01AB01662757FD6095762F0E94F5
:100AB00002058C01CE010E94A504800F911FDF91D9
:100AC000CF911F910F910895089504D06894B111AA
:100AD000B5C0089598D088F09F5790F0B92F992706
:100AE000B751A0F0D1F0660F771F881F991F1AF039
:100AF000BA95C9F712C0B13081F09FD0B1E0089526
:100B00009CC0672F782F8827B85F39F0B93FCCF3A6
:100B1000869577956795B395D9F73EF4909580952E
:100B2000709561957F4F8F4F9F4F0895E89409C04E
:100B300097FB3EF490958095709561957F4F8F4F10
:100B40009F4F9923A9F0F92F96E9BB279395F69526
:100B5000879577956795B795F111F8CFFAF4BB0FA4
:100B600011F460FF1BC06F5F7F4F8F4F9F4F16C008
:100B7000882311F096E911C0772321F09EE8872F92
:100B8000762F05C0662371F096E8862F70E060E04E
:100B90002AF09A95660F771F881FDAF7880F9695C7
:100BA000879597F9089597F99F6780E870E060E06E
:100BB00008959FEF80EC089500240A9416161706F6
:100BC00018060906089500240A941216130614063E
:100BD00005060895092E0394000C11F4882352F0A1
:100BE000BB0F40F4BF2B11F460FF04C06F5F7F4F59
:100BF0008F4F9F4F089557FD9058440F551F59F040
:100C00005F3F71F04795880F97FB991F61F09F3FF9
:100C100079F087950895121613061406551FF2CF22
:100C20004695F1DF08C0161617061806991FF1CF72
:100C300086957105610508940895E894BB27662799
:100C40007727CB0197F908950BD0C4CFB5DF28F0F3
:100C5000BADF18F0952309F0A6CFABCF1124EECF61
:100C6000CADFA0F3959FD1F3950F50E0551F629F07
:100C7000F001729FBB27F00DB11D639FAA27F00DF5
:100C8000B11DAA1F649F6627B00DA11D661F829F1C
:100C90002227B00DA11D621F739FB00DA11D621F01
:100CA000839FA00D611D221F749F3327A00D611D1E
:100CB000231F849F600D211D822F762F6A2F112400
:100CC0009F5750408AF0E1F088234AF0EE0FFF1F53
:100CD000BB1F661F771F881F91505040A9F79E3F8A
:100CE000510570F060CFAACF5F3FECF3983EDCF384
:100CF000869577956795B795F795E7959F5FC1F7C7
:100D0000FE2B880F911D9695879597F90895A1E27E
:100D10001A2EAA1BBB1BFD010DC0AA1FBB1FEE1F75
:100D2000FF1FA217B307E407F50720F0A21BB30BC0
:100D3000E40BF50B661F771F881F991F1A9469F73C
:100D400060957095809590959B01AC01BD01CF0198
:100D50000895EE0FFF1F0590F491E02D0994F8948B
:020D6000FFCFC3
:100D62000F00090001546865207265616476616C48
:100D7200756520697320005468652077726974650F
:100D820076616C7565206973200000000000E20244
:100D92005E0464027D026F02C0020D0A006E616E83
:0C0DA20000696E66006F7666002E00008F
:00000001FF
