:100000000C945D000C9485000C9485000C94850084
:100010000C9485000C9485000C9485000C9485004C
:100020000C9485000C9485000C9485000C9485003C
:100030000C9485000C9485000C9485000C9485002C
:100040000C9403010C9485000C94B0030C94E2030F
:100050000C9485000C9485000C9485000C9485000C
:100060000C9485000C94850000000008000201003B
:100070000003040700000000000000000102040863
:100080001020408001020408102001020408102002
:10009000040404040404040402020202020203032E
:1000A0000303030300000000250028002B000000CC
:1000B0000000240027002A00120411241FBECFEFE5
:1000C000D8E0DEBFCDBF11E0A0E0B1E0EAEDF9E09D
:1000D00002C005900D92AC32B107D9F721E0ACE235
:1000E000B1E001C01D92A33DB207E1F710E0CAEBF9
:1000F000D0E004C02297FE010E94E704C83BD1076C
:10010000C9F70E9456040C94EB040C94000061E0C3
:100110008BE00E94FC0160E08CE00E94FC0161E049
:100120008AE00E9435020E94CD0026E040E855E2B8
:1001300060E070E086E391E00E944E038CB58C7F16
:1001400081608CBD8DB581608DBD089560E08AE0D1
:100150000E943502809100018EBD00000DB407FEA3
:10016000FDCF8EB561E071E086E391E00E94A304CB
:100170006091000186E391E00E94B00461E08AE0B2
:100180000E943502809100018F5F8093000164E836
:1001900073E080E090E00C947001CF93CFB7F894B7
:1001A00080912C01811127C0EAE9F0E08491E6E812
:1001B000F0E09491E82FF0E0EE0FFF1FE255FF4FC3
:1001C000A591B4918C91892321F461E08AE00E9489
:1001D000350261E08AE00E94FC018CB580618CBD33
:1001E0008CB580648CBD61E08DE00E94FC0161E013
:1001F0008BE00E94FC0180912C018F5F80932C0189
:10020000CFBFCF9108951F920F920FB60F92112476
:100210002F933F938F939F93AF93BF9380912E0122
:1002200090912F01A0913001B091310130912D01B9
:1002300023E0230F2D3720F40196A11DB11D05C029
:1002400026E8230F0296A11DB11D20932D01809356
:100250002E0190932F01A0933001B0933101809132
:10026000320190913301A0913401B0913501019692
:10027000A11DB11D8093320190933301A0933401ED
:10028000B0933501BF91AF919F918F913F912F9185
:100290000F900FBE0F901F9018953FB7F894809164
:1002A000320190913301A0913401B091350126B50E
:1002B000A89B05C02F3F19F00196A11DB11D3FBF9E
:1002C0006627782F892F9A2F620F711D811D911D2E
:1002D00042E0660F771F881F991F4A95D1F708954E
:1002E000CF92DF92EF92FF92CF93DF936B017C016D
:1002F0000E944D01EB01C114D104E104F10489F025
:100300000E94C2040E944D016C1B7D0B683E73402D
:1003100090F381E0C81AD108E108F108C851DC4F18
:10032000EACFDF91CF91FF90EF90DF90CF900895CB
:10033000789484B5826084BD84B5816084BD85B5C0
:10034000826085BD85B5816085BDEEE6F0E0808187
:1003500081608083E1E8F0E01082808182608083A8
:10036000808181608083E0E8F0E08081816080832B
:10037000E1EBF0E0808184608083E0EBF0E080815D
:1003800081608083EAE7F0E08081846080838081FF
:1003900082608083808181608083808180688083A7
:1003A0001092C1000895833081F028F4813099F0D3
:1003B0008230A1F008958730A9F08830B9F08430F8
:1003C000D1F4809180008F7D03C0809180008F7771
:1003D00080938000089584B58F7702C084B58F7DA7
:1003E00084BD08958091B0008F7703C08091B000E4
:1003F0008F7D8093B0000895CF93DF9390E0FC0150
:10040000E458FF4F2491FC01E057FF4F849188236B
:1004100049F190E0880F991FFC01E255FF4FA5912B
:10042000B4918C559F4FFC01C591D4919FB7611138
:1004300008C0F8948C91209582238C938881822324
:100440000AC0623051F4F8948C91322F3095832396
:100450008C938881822B888304C0F8948C91822BA2
:100460008C939FBFDF91CF9108950F931F93CF93EC
:10047000DF931F92CDB7DEB7282F30E0F901E8599E
:10048000FF4F8491F901E458FF4F1491F901E057AF
:10049000FF4F04910023C9F0882321F069830E9453
:1004A000D3016981E02FF0E0EE0FFF1FEC55FF4F05
:1004B000A591B4919FB7F8948C91611103C01095E8
:1004C000812301C0812B8C939FBF0F90DF91CF912F
:1004D0001F910F910895FC01818D228D90E0805C29
:1004E0009F4F821B91098F7399270895FC01918D6D
:1004F000828D981731F0828DE80FF11D858D90E087
:1005000008958FEF9FEF0895FC01918D828D9817CC
:1005100061F0828DDF01A80FB11D5D968C91928DE7
:100520009F5F9F73928F90E008958FEF9FEF0895E4
:1005300088E094E0892B49F080E090E0892B29F055
:100540000E94080481110C9400000895FC01848D20
:10055000DF01A80FB11DA35ABF4F2C91848D90E0ED
:1005600001968F739927848FA689B7892C93A089C8
:10057000B1898C9180648C93938D848D981306C07F
:100580000288F389E02D80818F7D80830895CF9349
:10059000DF93EC01888D8823C9F0EA89FB8980818B
:1005A00085FD05C0A889B9898C9186FD0FC00FB65D
:1005B00007FCF5CF808185FFF2CFA889B9898C919E
:1005C00085FFEDCFCE010E94A602E7CFDF91CF914C
:1005D0000895CF92DF92FF920F931F93CF93DF93F3
:1005E0001F92CDB7DEB76C0181E0D60158968C938F
:1005F00058975B969C915B975C968C915C9798134F
:1006000007C05096ED91FC915197808185FD2EC0D9
:10061000F601038D10E00F5F1F4F0F731127F02EAF
:10062000F601848DF81211C00FB607FCF9CFD60180
:100630005096ED91FC915197808185FFF1CFC601D5
:1006400069830E94A6026981EBCF838DE80FF11DBB
:10065000E35AFF4F6083D6015B960C935B975296EB
:10066000ED91FC915397808180620CC0D601569623
:10067000ED91FC91579760835096ED91FC915197C5
:1006800080818064808381E090E00F90DF91CF9142
:100690001F910F91FF90DF90CF900895BF92CF925E
:1006A000DF92EF92FF92CF93DF93EC016A017B011F
:1006B000B22EE889F98982E08083411581EE5807DE
:1006C00061057105A1F060E079E08DE390E0A7019C
:1006D00096010E94C30421503109410951095695E0
:1006E000479537952795211580E1380798F0E889D7
:1006F000F989108260E874E88EE190E0A701960124
:100700000E94C3042150310941095109569547956A
:1007100037952795EC85FD853083EE85FF85208311
:10072000188EEC89FD89B082EA89FB89808180611D
:100730008083EA89FB89808188608083EA89FB89DC
:10074000808180688083EA89FB8980818F7D8083B6
:10075000DF91CF91FF90EF90DF90CF90BF90089501
:100760001F920F920FB60F9211242F938F939F9386
:10077000EF93FF93E0914601F09147018081E09172
:100780004C01F0914D0182FD12C0908180914F018A
:100790008F5F8F7320915001821751F0E0914F01CC
:1007A000F0E0EA5CFE4F958F80934F0101C080819D
:1007B000FF91EF919F918F912F910F900FBE0F900E
:1007C0001F9018951F920F920FB60F9211242F931E
:1007D0003F934F935F936F937F938F939F93AF93C9
:1007E000BF93EF93FF9386E391E00E94A602FF91EF
:1007F000EF91BF91AF919F918F917F916F915F9199
:100800004F913F912F910F900FBE0F901F90189511
:1008100086E391E00E946B0221E0892B09F420E03D
:10082000822F0895109239011092380188EE93E0DA
:10083000A0E0B0E080933A0190933B01A0933C018B
:10084000B0933D018FE091E09093370180933601A2
:1008500085EC90E0909343018093420184EC90E01A
:10086000909345018093440180EC90E09093470180
:100870008093460181EC90E0909349018093480178
:1008800082EC90E090934B0180934A0186EC90E0DB
:1008900090934D0180934C0110924F0110925001A2
:1008A0001092510110925201089508950E949801EA
:1008B0000E9455040E948700C8E9D2E00E94A60069
:1008C0002097E1F30E949802F9CFCF92DF92EF9246
:1008D000FF920F931F93CF93DF936C017A01EB018B
:1008E000E60EF71E00E010E0CE15DF0561F069911D
:1008F000D601ED91FC910190F081E02DC6010995A2
:10090000080F191FF1CFC801DF91CF911F910F91EF
:10091000FF90EF90DF90CF9008956115710581F001
:10092000DB010D900020E9F7AD0141505109461B54
:10093000570BDC01ED91FC910280F381E02D0994CD
:1009400080E090E008950C948D04DC01ED91FC9121
:100950000190F081E02D09946BE171E00C948D041D
:100960000F931F93CF93DF93EC010E94A5048C019A
:10097000CE010E94AC04800F911FDF91CF911F9197
:100980000F9108950895A1E21A2EAA1BBB1BFD0129
:100990000DC0AA1FBB1FEE1FFF1FA217B307E4075E
:1009A000F50720F0A21BB30BE40BF50B661F771FB6
:1009B000881F991F1A9469F7609570958095909596
:1009C0009B01AC01BD01CF010895EE0FFF1F059003
:0A09D000F491E02D0994F894FFCF94
:1009DA006153656E64696E67203A0000000000E9A1
:1009EA000265046B0284027602C7020D0A006E6178
:0C09FA006E00696E66006F7666002E00CD
:00000001FF
