:100000000C945D000C9485000C9485000C94850084
:100010000C9485000C9485000C9485000C9485004C
:100020000C9485000C9485000C9485000C9485003C
:100030000C9485000C9485000C9485000C9485002C
:100040000C94C2000C9485000C94CE030C94000414
:100050000C9485000C9485000C9485000C9485000C
:100060000C9485000C94850000000008000201003B
:100070000003040700000000000000000102040863
:100080001020408001020408102001020408102002
:10009000040404040404040402020202020203032E
:1000A0000303030300000000250028002B000000CC
:1000B0000000240027002A00300411241FBECFEFC7
:1000C000D8E0DEBFCDBF11E0A0E0B1E0ECEAF9E09E
:1000D00002C005900D92A831B107D9F721E0A8E13F
:1000E000B1E001C01D92AE3BB207E1F710E0CAEBF0
:1000F000D0E004C02297FE010E94D004C83BD10783
:10010000C9F70E9474040C94D4040C94000061E0BC
:10011000809106010E941A0261E0809104010E9410
:100120001A0226E040E855E260E070E081E291E0EA
:100130000C946C0360910001709101016F3F710597
:1001400009F0F8F4809106010E949201609100018B
:10015000809104010E94530268E873E180E090E01E
:100160000E942F01809100019091010120910201D4
:1001700030910301820F931F90930101809300013E
:10018000D9CF08951F920F920FB60F9211242F937B
:100190003F938F939F93AF93BF9380911901909159
:1001A0001A01A0911B01B0911C013091180123E0AC
:1001B000230F2D3720F40196A11DB11D05C026E89F
:1001C000230F0296A11DB11D2093180180931901E0
:1001D00090931A01A0931B01B0931C0180911D0103
:1001E00090911E01A0911F01B09120010196A11DC7
:1001F000B11D80931D0190931E01A0931F01B09328
:100200002001BF91AF919F918F913F912F910F90BE
:100210000FBE0F901F9018953FB7F89480911D0165
:1002200090911E01A0911F01B091200126B5A89BBD
:1002300005C02F3F19F00196A11DB11D3FBF6627D4
:10024000782F892F9A2F620F711D811D911D42E019
:10025000660F771F881F991F4A95D1F70895CF928F
:10026000DF92EF92FF92CF93DF936B017C010E94AC
:100270000C01EB01C114D104E104F10489F00E94E6
:10028000AB040E940C016C1B7D0B683E734090F325
:1002900081E0C81AD108E108F108C851DC4FEACF63
:1002A000DF91CF91FF90EF90DF90CF9008957894F9
:1002B00084B5826084BD84B5816084BD85B582606B
:1002C00085BD85B5816085BDEEE6F0E08081816009
:1002D0008083E1E8F0E01082808182608083808109
:1002E00081608083E0E8F0E0808181608083E1EBE1
:1002F000F0E0808184608083E0EBF0E080818160C9
:100300008083EAE7F0E0808184608083808182607E
:100310008083808181608083808180688083109267
:10032000C10008951F93CF93DF93182FEB0161E075
:100330000E941A02209711F460E004C0CF3FD1055B
:1003400039F461E0812FDF91CF911F910C9453021A
:10035000E12FF0E0E859FF4FE491E330F9F048F481
:10036000E130B9F0E230A1F584B5806284BDC8BD4A
:1003700034C0E730E9F0E83019F1E43049F5809114
:100380008000806280938000D0938B00C0938A00AD
:1003900024C084B5806884BDC7BD1FC08091800023
:1003A000806880938000D0938900C093880015C036
:1003B0008091B00080688093B000C093B3000DC0FE
:1003C0008091B00080628093B000C093B40005C0FB
:1003D000C038D1050CF0B5CFAFCFDF91CF911F91D1
:1003E0000895833081F028F4813099F08230A1F0B3
:1003F00008958730A9F08830B9F08430D1F4809125
:1004000080008F7D03C0809180008F778093800073
:10041000089584B58F7702C084B58F7D84BD08951B
:100420008091B0008F7703C08091B0008F7D809362
:10043000B0000895CF93DF9390E0FC01E458FF4FA4
:100440002491FC01E057FF4F8491882349F190E00B
:10045000880F991FFC01E255FF4FA591B4918C556F
:100460009F4FFC01C591D4919FB7611108C0F894CA
:100470008C91209582238C93888182230AC06230DC
:1004800051F4F8948C91322F309583238C9388818A
:10049000822B888304C0F8948C91822B8C939FBF0D
:1004A000DF91CF9108950F931F93CF93DF931F9206
:1004B000CDB7DEB7282F30E0F901E859FF4F84911E
:1004C000F901E458FF4F1491F901E057FF4F0491EF
:1004D0000023C9F0882321F069830E94F10169811A
:1004E000E02FF0E0EE0FFF1FEC55FF4FA591B49108
:1004F0009FB7F8948C91611103C01095812301C0BE
:10050000812B8C939FBF0F90DF91CF911F910F9103
:100510000895FC01818D228D90E0805C9F4F821BAD
:1005200091098F7399270895FC01918D828D9817F9
:1005300031F0828DE80FF11D858D90E008958FEFE9
:100540009FEF0895FC01918D828D981761F0828D47
:10055000DF01A80FB11D5D968C91928D9F5F9F73F7
:10056000928F90E008958FEF9FEF089586E294E0D8
:10057000892B49F080E090E0892B29F00E94260425
:1005800081110C9400000895FC01848DDF01A80FF7
:10059000B11DA35ABF4F2C91848D90E001968F73AB
:1005A0009927848FA689B7892C93A089B1898C91CA
:1005B00080648C93938D848D981306C00288F38990
:1005C000E02D80818F7D80830895CF93DF93EC01B0
:1005D000888D8823C9F0EA89FB89808185FD05C063
:1005E000A889B9898C9186FD0FC00FB607FCF5CF9D
:1005F000808185FFF2CFA889B9898C9185FFEDCFE5
:10060000CE010E94C402E7CFDF91CF910895CF922F
:10061000DF92FF920F931F93CF93DF931F92CDB77B
:10062000DEB76C0181E0D60158968C9358975B96A3
:100630009C915B975C968C915C97981307C0509641
:10064000ED91FC915197808185FD2EC0F601038DBF
:1006500010E00F5F1F4F0F731127F02EF601848DEE
:10066000F81211C00FB607FCF9CFD6015096ED91E4
:10067000FC915197808185FFF1CFC60169830E946B
:10068000C4026981EBCF838DE80FF11DE35AFF4F60
:100690006083D6015B960C935B975296ED91FC912B
:1006A0005397808180620CC0D6015696ED91FC91E3
:1006B000579760835096ED91FC91519780818064AB
:1006C000808381E090E00F90DF91CF911F910F9197
:1006D000FF90DF90CF900895BF92CF92DF92EF927C
:1006E000FF92CF93DF93EC016A017B01B22EE88980
:1006F000F98982E08083411581EE58076105710513
:10070000A1F060E079E08DE390E0A70196010E94FE
:10071000AC04215031094109510956954795379547
:100720002795211580E1380798F0E889F98910822A
:1007300060E874E88EE190E0A70196010E94AC04A5
:10074000215031094109510956954795379527950B
:10075000EC85FD853083EE85FF852083188EEC893E
:10076000FD89B082EA89FB89808180618083EA8982
:10077000FB89808188608083EA89FB898081806829
:100780008083EA89FB8980818F7D8083DF91CF918F
:10079000FF90EF90DF90CF90BF9008951F920F923F
:1007A0000FB60F9211242F938F939F93EF93FF9384
:1007B000E0913101F09132018081E0913701F091B7
:1007C000380182FD12C0908180913A018F5F8F7352
:1007D00020913B01821751F0E0913A01F0E0EF5D8A
:1007E000FE4F958F80933A0101C08081FF91EF9178
:1007F0009F918F912F910F900FBE0F901F90189582
:100800001F920F920FB60F9211242F933F934F9385
:100810005F936F937F938F939F93AF93BF93EF9368
:10082000FF9381E291E00E94C402FF91EF91BF919A
:10083000AF919F918F917F916F915F914F913F9178
:100840002F910F900FBE0F901F90189581E291E0AD
:100850000E94890221E0892B09F420E0822F08956B
:10086000109224011092230188EE93E0A0E0B0E002
:100870008093250190932601A0932701B09328012E
:100880008CE091E0909322018093210185EC90E02F
:1008900090932E0180932D0184EC90E09093300191
:1008A00080932F0180EC90E090933201809331018E
:1008B00081EC90E0909334018093330182EC90E0DE
:1008C000909336018093350186EC90E09093380147
:1008D0008093370110923A0110923B0110923C0133
:1008E00010923D01089508950E9457010E947304DB
:1008F0000E948700C6EBD2E00E949A002097E1F3A5
:100900000E94B602F9CFCF92DF92EF92FF920F933F
:100910001F93CF93DF936C017A01EB01E60EF71E74
:1009200000E010E0CE15DF0561F06991D601ED9190
:10093000FC910190F081E02DC6010995080F191F67
:10094000F1CFC801DF91CF911F910F91FF90EF90F0
:10095000DF90CF9008950895A1E21A2EAA1BBB1B29
:10096000FD010DC0AA1FBB1FEE1FFF1FA217B3077B
:10097000E407F50720F0A21BB30BE40BF50B661F91
:10098000771F881F991F1A9469F760957095809555
:1009900090959B01AC01BD01CF010895EE0FFF1FA3
:0C09A0000590F491E02D0994F894FFCF2D
:1009AC0001000A0009000300000000000703830493
:0809BC008902A2029402E50287
:00000001FF
